{
  "contractName": "AchievementManager",
  "abi": [
    {
      "constant": true,
      "inputs": [],
      "name": "REG",
      "outputs": [
        {
          "name": "",
          "type": "address"
        }
      ],
      "payable": false,
      "stateMutability": "view",
      "type": "function"
    },
    {
      "constant": true,
      "inputs": [
        {
          "name": "_addr",
          "type": "address"
        }
      ],
      "name": "isPermitted",
      "outputs": [
        {
          "name": "found",
          "type": "bool"
        }
      ],
      "payable": false,
      "stateMutability": "view",
      "type": "function"
    },
    {
      "constant": true,
      "inputs": [],
      "name": "minimumDeposit",
      "outputs": [
        {
          "name": "",
          "type": "uint256"
        }
      ],
      "payable": false,
      "stateMutability": "view",
      "type": "function"
    },
    {
      "constant": true,
      "inputs": [],
      "name": "THIS_NAME",
      "outputs": [
        {
          "name": "",
          "type": "bytes32"
        }
      ],
      "payable": false,
      "stateMutability": "view",
      "type": "function"
    },
    {
      "constant": true,
      "inputs": [
        {
          "name": "",
          "type": "bytes32"
        }
      ],
      "name": "achievements",
      "outputs": [
        {
          "name": "id",
          "type": "bytes32"
        },
        {
          "name": "title",
          "type": "bytes32"
        },
        {
          "name": "creator",
          "type": "address"
        },
        {
          "name": "explanation",
          "type": "bytes32"
        },
        {
          "name": "reward",
          "type": "uint256"
        },
        {
          "name": "uri",
          "type": "string"
        },
        {
          "name": "createdAt",
          "type": "uint256"
        }
      ],
      "payable": false,
      "stateMutability": "view",
      "type": "function"
    },
    {
      "constant": false,
      "inputs": [],
      "name": "renounceOwnership",
      "outputs": [],
      "payable": false,
      "stateMutability": "nonpayable",
      "type": "function"
    },
    {
      "constant": true,
      "inputs": [
        {
          "name": "",
          "type": "uint256"
        }
      ],
      "name": "allAchievements",
      "outputs": [
        {
          "name": "",
          "type": "bytes32"
        }
      ],
      "payable": false,
      "stateMutability": "view",
      "type": "function"
    },
    {
      "constant": true,
      "inputs": [
        {
          "name": "",
          "type": "bytes32"
        }
      ],
      "name": "balance",
      "outputs": [
        {
          "name": "",
          "type": "uint256"
        }
      ],
      "payable": false,
      "stateMutability": "view",
      "type": "function"
    },
    {
      "constant": true,
      "inputs": [],
      "name": "owner",
      "outputs": [
        {
          "name": "",
          "type": "address"
        }
      ],
      "payable": false,
      "stateMutability": "view",
      "type": "function"
    },
    {
      "constant": true,
      "inputs": [],
      "name": "isOwner",
      "outputs": [
        {
          "name": "",
          "type": "bool"
        }
      ],
      "payable": false,
      "stateMutability": "view",
      "type": "function"
    },
    {
      "constant": false,
      "inputs": [
        {
          "name": "_addr",
          "type": "address"
        }
      ],
      "name": "setRegistry",
      "outputs": [],
      "payable": false,
      "stateMutability": "nonpayable",
      "type": "function"
    },
    {
      "constant": false,
      "inputs": [
        {
          "name": "newOwner",
          "type": "address"
        }
      ],
      "name": "transferOwnership",
      "outputs": [],
      "payable": false,
      "stateMutability": "nonpayable",
      "type": "function"
    },
    {
      "inputs": [],
      "payable": false,
      "stateMutability": "nonpayable",
      "type": "constructor"
    },
    {
      "anonymous": false,
      "inputs": [
        {
          "indexed": true,
          "name": "achievementId",
          "type": "bytes32"
        },
        {
          "indexed": false,
          "name": "topics",
          "type": "uint256[]"
        },
        {
          "indexed": false,
          "name": "issuers",
          "type": "address[]"
        },
        {
          "indexed": false,
          "name": "staked",
          "type": "uint256"
        },
        {
          "indexed": false,
          "name": "uri",
          "type": "string"
        },
        {
          "indexed": false,
          "name": "createdAt",
          "type": "uint256"
        }
      ],
      "name": "CreateAchievement",
      "type": "event"
    },
    {
      "anonymous": false,
      "inputs": [
        {
          "indexed": true,
          "name": "achievementId",
          "type": "bytes32"
        },
        {
          "indexed": false,
          "name": "reward",
          "type": "uint256"
        },
        {
          "indexed": false,
          "name": "charge",
          "type": "uint256"
        }
      ],
      "name": "UpdateAchievement",
      "type": "event"
    },
    {
      "anonymous": false,
      "inputs": [
        {
          "indexed": true,
          "name": "achievementId",
          "type": "bytes32"
        },
        {
          "indexed": false,
          "name": "charge",
          "type": "uint256"
        }
      ],
      "name": "FundAchievement",
      "type": "event"
    },
    {
      "anonymous": false,
      "inputs": [
        {
          "indexed": true,
          "name": "achievementId",
          "type": "bytes32"
        },
        {
          "indexed": false,
          "name": "refund",
          "type": "uint256"
        }
      ],
      "name": "DeleteAchievement",
      "type": "event"
    },
    {
      "anonymous": false,
      "inputs": [
        {
          "indexed": true,
          "name": "achievementId",
          "type": "bytes32"
        },
        {
          "indexed": true,
          "name": "receiver",
          "type": "address"
        },
        {
          "indexed": false,
          "name": "reward",
          "type": "uint256"
        },
        {
          "indexed": false,
          "name": "rewarded",
          "type": "address"
        }
      ],
      "name": "RequestAchievement",
      "type": "event"
    },
    {
      "anonymous": false,
      "inputs": [
        {
          "indexed": true,
          "name": "previousOwner",
          "type": "address"
        },
        {
          "indexed": true,
          "name": "newOwner",
          "type": "address"
        }
      ],
      "name": "OwnershipTransferred",
      "type": "event"
    },
    {
      "constant": true,
      "inputs": [
        {
          "name": "_addr",
          "type": "address"
        }
      ],
      "name": "isAAttestationAgency",
      "outputs": [
        {
          "name": "found",
          "type": "bool"
        }
      ],
      "payable": false,
      "stateMutability": "view",
      "type": "function"
    },
    {
      "constant": false,
      "inputs": [
        {
          "name": "_topics",
          "type": "uint256[]"
        },
        {
          "name": "_issuers",
          "type": "address[]"
        },
        {
          "name": "_title",
          "type": "bytes32"
        },
        {
          "name": "_achievementExplanation",
          "type": "bytes32"
        },
        {
          "name": "_reward",
          "type": "uint256"
        },
        {
          "name": "_uri",
          "type": "string"
        }
      ],
      "name": "createAchievement",
      "outputs": [
        {
          "name": "success",
          "type": "bool"
        }
      ],
      "payable": true,
      "stateMutability": "payable",
      "type": "function"
    },
    {
      "constant": false,
      "inputs": [
        {
          "name": "_achievementId",
          "type": "bytes32"
        },
        {
          "name": "_reward",
          "type": "uint256"
        }
      ],
      "name": "updateAchievement",
      "outputs": [
        {
          "name": "success",
          "type": "bool"
        }
      ],
      "payable": true,
      "stateMutability": "payable",
      "type": "function"
    },
    {
      "constant": false,
      "inputs": [
        {
          "name": "_achievementId",
          "type": "bytes32"
        }
      ],
      "name": "fundAchievement",
      "outputs": [
        {
          "name": "success",
          "type": "bool"
        }
      ],
      "payable": true,
      "stateMutability": "payable",
      "type": "function"
    },
    {
      "constant": false,
      "inputs": [
        {
          "name": "_achievementId",
          "type": "bytes32"
        }
      ],
      "name": "deleteAchievement",
      "outputs": [
        {
          "name": "success",
          "type": "bool"
        }
      ],
      "payable": false,
      "stateMutability": "nonpayable",
      "type": "function"
    },
    {
      "constant": false,
      "inputs": [
        {
          "name": "_achievementId",
          "type": "bytes32"
        }
      ],
      "name": "requestAchievement",
      "outputs": [
        {
          "name": "success",
          "type": "bool"
        }
      ],
      "payable": false,
      "stateMutability": "nonpayable",
      "type": "function"
    },
    {
      "constant": true,
      "inputs": [
        {
          "name": "_identity",
          "type": "address"
        },
        {
          "name": "_topic",
          "type": "uint256"
        }
      ],
      "name": "hasSelfClaim",
      "outputs": [
        {
          "name": "",
          "type": "bool"
        }
      ],
      "payable": false,
      "stateMutability": "view",
      "type": "function"
    },
    {
      "constant": true,
      "inputs": [],
      "name": "getAllAchievementList",
      "outputs": [
        {
          "name": "list",
          "type": "bytes32[]"
        }
      ],
      "payable": false,
      "stateMutability": "view",
      "type": "function"
    },
    {
      "constant": true,
      "inputs": [],
      "name": "getActiveAchievementList",
      "outputs": [
        {
          "name": "list",
          "type": "bytes32[]"
        }
      ],
      "payable": false,
      "stateMutability": "view",
      "type": "function"
    },
    {
      "constant": true,
      "inputs": [],
      "name": "getLengthOfAchievements",
      "outputs": [
        {
          "name": "length",
          "type": "uint256"
        }
      ],
      "payable": false,
      "stateMutability": "view",
      "type": "function"
    },
    {
      "constant": true,
      "inputs": [
        {
          "name": "_achievementId",
          "type": "bytes32"
        }
      ],
      "name": "getAchievementById",
      "outputs": [
        {
          "name": "id",
          "type": "bytes32"
        },
        {
          "name": "creator",
          "type": "address"
        },
        {
          "name": "issuers",
          "type": "address[]"
        },
        {
          "name": "claimTopics",
          "type": "uint256[]"
        },
        {
          "name": "title",
          "type": "bytes32"
        },
        {
          "name": "explanation",
          "type": "bytes32"
        },
        {
          "name": "reward",
          "type": "uint256"
        },
        {
          "name": "uri",
          "type": "string"
        },
        {
          "name": "createdAt",
          "type": "uint256"
        }
      ],
      "payable": false,
      "stateMutability": "view",
      "type": "function"
    },
    {
      "constant": true,
      "inputs": [
        {
          "name": "_index",
          "type": "uint256"
        }
      ],
      "name": "getAchievementByIndex",
      "outputs": [
        {
          "name": "id",
          "type": "bytes32"
        },
        {
          "name": "creator",
          "type": "address"
        },
        {
          "name": "issuers",
          "type": "address[]"
        },
        {
          "name": "claimTopics",
          "type": "uint256[]"
        },
        {
          "name": "title",
          "type": "bytes32"
        },
        {
          "name": "explanation",
          "type": "bytes32"
        },
        {
          "name": "reward",
          "type": "uint256"
        },
        {
          "name": "uri",
          "type": "string"
        },
        {
          "name": "createdAt",
          "type": "uint256"
        }
      ],
      "payable": false,
      "stateMutability": "view",
      "type": "function"
    },
    {
      "constant": true,
      "inputs": [
        {
          "name": "creator",
          "type": "address"
        },
        {
          "name": "topics",
          "type": "uint256[]"
        },
        {
          "name": "issuers",
          "type": "address[]"
        }
      ],
      "name": "getAchievementId",
      "outputs": [
        {
          "name": "id",
          "type": "bytes32"
        }
      ],
      "payable": false,
      "stateMutability": "pure",
      "type": "function"
    }
  ],
  "bytecode": "0x6080604052670de0b6b3a764000060035534801561001c57600080fd5b50336000806101000a81548173ffffffffffffffffffffffffffffffffffffffff021916908373ffffffffffffffffffffffffffffffffffffffff1602179055506000809054906101000a900473ffffffffffffffffffffffffffffffffffffffff1673ffffffffffffffffffffffffffffffffffffffff16600073ffffffffffffffffffffffffffffffffffffffff167f8be0079c531659141344cd1fd0a4f28419497f9722a3daafe3b4186f6b6457e060405160405180910390a37f416368696576656d656e744d616e616765720000000000000000000000000000600281600019169055506140a0806101136000396000f300608060405260043610610149576000357c0100000000000000000000000000000000000000000000000000000000900463ffffffff16806305b636e31461014e5780631649b883146102f257806318b6e0321461035757806322a3ecb71461039d5780632f1b9f141461040957806339363112146104755780633fd8cc4e146104cc578063509257e814610527578063636bfbab1461055257806364319d0b1461057d5780636b03af84146105b0578063715018a6146106c857806374f0ce45146106df57806377aea96714610728578063857ab0751461078357806389eba421146108685780638da5cb5b146108ad5780638f32d59b1461090457806397d26ab0146109335780639cb4da0814610adb578063a64a3da314610b24578063a91ee0dc14610b6d578063bc4f5a4014610bb0578063e3e5dcab14610cd0578063f2fde38b14610d0c575b600080fd5b34801561015a57600080fd5b5061017960048036038101908080359060200190929190505050610d4f565b604051808a600019166000191681526020018973ffffffffffffffffffffffffffffffffffffffff1673ffffffffffffffffffffffffffffffffffffffff1681526020018060200180602001886000191660001916815260200187600019166000191681526020018681526020018060200185815260200184810384528b818151815260200191508051906020019060200280838360005b8381101561022c578082015181840152602081019050610211565b5050505090500184810383528a818151815260200191508051906020019060200280838360005b8381101561026e578082015181840152602081019050610253565b50505050905001848103825286818151815260200191508051906020019080838360005b838110156102ad578082015181840152602081019050610292565b50505050905090810190601f1680156102da5780820380516001836020036101000a031916815260200191505b509c5050505050505050505050505060405180910390f35b3480156102fe57600080fd5b5061033d600480360381019080803573ffffffffffffffffffffffffffffffffffffffff16906020019092919080359060200190929190505050611045565b604051808215151515815260200191505060405180910390f35b61038360048036038101908080356000191690602001909291908035906020019092919050505061147f565b604051808215151515815260200191505060405180910390f35b3480156103a957600080fd5b506103b2611620565b6040518080602001828103825283818151815260200191508051906020019060200280838360005b838110156103f55780820151818401526020810190506103da565b505050509050019250505060405180910390f35b34801561041557600080fd5b5061041e61167c565b6040518080602001828103825283818151815260200191508051906020019060200280838360005b83811015610461578082015181840152602081019050610446565b505050509050019250505060405180910390f35b34801561048157600080fd5b5061048a6116d8565b604051808273ffffffffffffffffffffffffffffffffffffffff1673ffffffffffffffffffffffffffffffffffffffff16815260200191505060405180910390f35b3480156104d857600080fd5b5061050d600480360381019080803573ffffffffffffffffffffffffffffffffffffffff1690602001909291905050506116fe565b604051808215151515815260200191505060405180910390f35b34801561053357600080fd5b5061053c611811565b6040518082815260200191505060405180910390f35b34801561055e57600080fd5b5061056761181e565b6040518082815260200191505060405180910390f35b34801561058957600080fd5b50610592611824565b60405180826000191660001916815260200191505060405180910390f35b3480156105bc57600080fd5b506105df600480360381019080803560001916906020019092919050505061182a565b60405180886000191660001916815260200187600019166000191681526020018673ffffffffffffffffffffffffffffffffffffffff1673ffffffffffffffffffffffffffffffffffffffff168152602001856000191660001916815260200184815260200180602001838152602001828103825284818151815260200191508051906020019080838360005b8381101561068757808201518184015260208101905061066c565b50505050905090810190601f1680156106b45780820380516001836020036101000a031916815260200191505b509850505050505050505060405180910390f35b3480156106d457600080fd5b506106dd611924565b005b3480156106eb57600080fd5b5061070a600480360381019080803590602001909291905050506119f6565b60405180826000191660001916815260200191505060405180910390f35b34801561073457600080fd5b50610769600480360381019080803573ffffffffffffffffffffffffffffffffffffffff169060200190929190505050611a19565b604051808215151515815260200191505060405180910390f35b34801561078f57600080fd5b5061084a600480360381019080803573ffffffffffffffffffffffffffffffffffffffff1690602001909291908035906020019082018035906020019080806020026020016040519081016040528093929190818152602001838360200280828437820191505050505050919291929080359060200190820180359060200190808060200260200160405190810160405280939291908181526020018383602002808284378201915050505050509192919290505050611c62565b60405180826000191660001916815260200191505060405180910390f35b34801561087457600080fd5b506108976004803603810190808035600019169060200190929190505050611f04565b6040518082815260200191505060405180910390f35b3480156108b957600080fd5b506108c2611f1c565b604051808273ffffffffffffffffffffffffffffffffffffffff1673ffffffffffffffffffffffffffffffffffffffff16815260200191505060405180910390f35b34801561091057600080fd5b50610919611f45565b604051808215151515815260200191505060405180910390f35b34801561093f57600080fd5b506109626004803603810190808035600019169060200190929190505050611f9c565b604051808a600019166000191681526020018973ffffffffffffffffffffffffffffffffffffffff1673ffffffffffffffffffffffffffffffffffffffff1681526020018060200180602001886000191660001916815260200187600019166000191681526020018681526020018060200185815260200184810384528b818151815260200191508051906020019060200280838360005b83811015610a155780820151818401526020810190506109fa565b5050505090500184810383528a818151815260200191508051906020019060200280838360005b83811015610a57578082015181840152602081019050610a3c565b50505050905001848103825286818151815260200191508051906020019080838360005b83811015610a96578082015181840152602081019050610a7b565b50505050905090810190601f168015610ac35780820380516001836020036101000a031916815260200191505b509c5050505050505050505050505060405180910390f35b348015610ae757600080fd5b50610b0a600480360381019080803560001916906020019092919050505061225c565b604051808215151515815260200191505060405180910390f35b348015610b3057600080fd5b50610b53600480360381019080803560001916906020019092919050505061240c565b604051808215151515815260200191505060405180910390f35b348015610b7957600080fd5b50610bae600480360381019080803573ffffffffffffffffffffffffffffffffffffffff16906020019092919050505061334b565b005b610cb660048036038101908080359060200190820180359060200190808060200260200160405190810160405280939291908181526020018383602002808284378201915050505050509192919290803590602001908201803590602001908080602002602001604051908101604052809392919081815260200183836020028082843782019150505050505091929192908035600019169060200190929190803560001916906020019092919080359060200190929190803590602001908201803590602001908080601f01602080910402602001604051908101604052809392919081815260200183838082843782019150505050505091929192905050506133a2565b604051808215151515815260200191505060405180910390f35b610cf26004803603810190808035600019169060200190929190505050613c5a565b604051808215151515815260200191505060405180910390f35b348015610d1857600080fd5b50610d4d600480360381019080803573ffffffffffffffffffffffffffffffffffffffff169060200190929190505050613cee565b005b6000806060806000806000606060008060068b815481101515610d6e57fe5b906000526020600020015490506004600082600019166000191681526020019081526020016000206000015460046000836000191660001916815260200190815260200160002060020160009054906101000a900473ffffffffffffffffffffffffffffffffffffffff16600460008460001916600019168152602001908152602001600020600301600460008560001916600019168152602001908152602001600020600401600460008660001916600019168152602001908152602001600020600101546004600087600019166000191681526020019081526020016000206005015460046000886000191660001916815260200190815260200160002060060154600460008960001916600019168152602001908152602001600020600701600460008a600019166000191681526020019081526020016000206008015486805480602002602001604051908101604052809291908181526020018280548015610f3057602002820191906000526020600020905b8160009054906101000a900473ffffffffffffffffffffffffffffffffffffffff1673ffffffffffffffffffffffffffffffffffffffff1681526020019060010190808311610ee6575b5050505050965085805480602002602001604051908101604052809291908181526020018280548015610f8257602002820191906000526020600020905b815481526020019060010190808311610f6e575b50505050509550818054600181600116156101000203166002900480601f01602080910402602001604051908101604052809291908181526020018280546001816001161561010002031660029004801561101e5780601f10610ff35761010080835404028352916020019161101e565b820191906000526020600020905b81548152906001019060200180831161100157829003601f168201915b50505050509150995099509950995099509950995099509950509193959799909294969850565b600060606000808573ffffffffffffffffffffffffffffffffffffffff1663262b54f5866040518263ffffffff167c010000000000000000000000000000000000000000000000000000000002815260040180828152602001915050600060405180830381600087803b1580156110bb57600080fd5b505af11580156110cf573d6000803e3d6000fd5b505050506040513d6000823e3d601f19601f8201168201806040525060208110156110f957600080fd5b81019080805164010000000081111561111157600080fd5b8281019050602081018481111561112757600080fd5b815185602082028301116401000000008211171561114457600080fd5b50509291905050509250600090505b8251811015611471578573ffffffffffffffffffffffffffffffffffffffff1663c9100bcb848381518110151561118657fe5b906020019060200201516040518263ffffffff167c0100000000000000000000000000000000000000000000000000000000028152600401808260001916600019168152602001915050600060405180830381600087803b1580156111ea57600080fd5b505af11580156111fe573d6000803e3d6000fd5b505050506040513d6000823e3d601f19601f8201168201806040525060c081101561122857600080fd5b81019080805190602001909291908051906020019092919080519060200190929190805164010000000081111561125e57600080fd5b8281019050602081018481111561127457600080fd5b815185600182028301116401000000008211171561129157600080fd5b505092919060200180516401000000008111156112ad57600080fd5b828101905060208101848111156112c357600080fd5b81518560018202830111640100000000821117156112e057600080fd5b505092919060200180516401000000008111156112fc57600080fd5b8281019050602081018481111561131257600080fd5b815185600182028301116401000000008211171561132f57600080fd5b50509291905050509091929394509091929350909150905050809250508573ffffffffffffffffffffffffffffffffffffffff1663d202158d8373ffffffffffffffffffffffffffffffffffffffff1660010260036040518363ffffffff167c010000000000000000000000000000000000000000000000000000000002815260040180836000191660001916815260200182815260200192505050602060405180830381600087803b1580156113e557600080fd5b505af11580156113f9573d6000803e3d6000fd5b505050506040513d602081101561140f57600080fd5b81019080805190602001909291905050508061145657503373ffffffffffffffffffffffffffffffffffffffff168273ffffffffffffffffffffffffffffffffffffffff16145b156114645760019350611476565b8080600101915050611153565b600093505b50505092915050565b60003373ffffffffffffffffffffffffffffffffffffffff1660046000856000191660001916815260200190815260200160002060020160009054906101000a900473ffffffffffffffffffffffffffffffffffffffff1673ffffffffffffffffffffffffffffffffffffffff16141515611562576040517f08c379a00000000000000000000000000000000000000000000000000000000081526004018080602001828103825260158152602001807f73656e646572206973206e6f742063726561746f72000000000000000000000081525060200191505060405180910390fd5b81600460008560001916600019168152602001908152602001600020600601819055506115b33460056000866000191660001916815260200190815260200160002054613d0d90919063ffffffff16565b6005600085600019166000191681526020019081526020016000208190555082600019167f409c15ea918971e39c60d842defa9f1480c49f4c482f97824070559e6e34e1038334604051808381526020018281526020019250505060405180910390a26001905092915050565b6060600680548060200260200160405190810160405280929190818152602001828054801561167257602002820191906000526020600020905b8154600019168152602001906001019080831161165a575b5050505050905090565b606060068054806020026020016040519081016040528092919081815260200182805480156116ce57602002820191906000526020600020905b815460001916815260200190600101908083116116b6575b5050505050905090565b600160009054906101000a900473ffffffffffffffffffffffffffffffffffffffff1681565b6000600160009054906101000a900473ffffffffffffffffffffffffffffffffffffffff1673ffffffffffffffffffffffffffffffffffffffff166360d6c7cf600254846040518363ffffffff167c01000000000000000000000000000000000000000000000000000000000281526004018083600019166000191681526020018273ffffffffffffffffffffffffffffffffffffffff1673ffffffffffffffffffffffffffffffffffffffff16815260200192505050602060405180830381600087803b1580156117cf57600080fd5b505af11580156117e3573d6000803e3d6000fd5b505050506040513d60208110156117f957600080fd5b81019080805190602001909291905050509050919050565b6000600680549050905090565b60035481565b60025481565b60046020528060005260406000206000915090508060000154908060010154908060020160009054906101000a900473ffffffffffffffffffffffffffffffffffffffff1690806005015490806006015490806007018054600181600116156101000203166002900480601f0160208091040260200160405190810160405280929190818152602001828054600181600116156101000203166002900480156119145780601f106118e957610100808354040283529160200191611914565b820191906000526020600020905b8154815290600101906020018083116118f757829003601f168201915b5050505050908060080154905087565b61192c611f45565b151561193757600080fd5b600073ffffffffffffffffffffffffffffffffffffffff166000809054906101000a900473ffffffffffffffffffffffffffffffffffffffff1673ffffffffffffffffffffffffffffffffffffffff167f8be0079c531659141344cd1fd0a4f28419497f9722a3daafe3b4186f6b6457e060405160405180910390a360008060006101000a81548173ffffffffffffffffffffffffffffffffffffffff021916908373ffffffffffffffffffffffffffffffffffffffff160217905550565b600681815481101515611a0557fe5b906000526020600020016000915090505481565b600080600160009054906101000a900473ffffffffffffffffffffffffffffffffffffffff1673ffffffffffffffffffffffffffffffffffffffff16630d2020dd6040518163ffffffff167c010000000000000000000000000000000000000000000000000000000002815260040180807f4174746573746174696f6e4167656e63795265676973747279000000000000008152506020019050602060405180830381600087803b158015611acd57600080fd5b505af1158015611ae1573d6000803e3d6000fd5b505050506040513d6020811015611af757600080fd5b8101908080519060200190929190505050905060008173ffffffffffffffffffffffffffffffffffffffff1663c3c5a547856040518263ffffffff167c0100000000000000000000000000000000000000000000000000000000028152600401808273ffffffffffffffffffffffffffffffffffffffff1673ffffffffffffffffffffffffffffffffffffffff168152602001915050602060405180830381600087803b158015611ba757600080fd5b505af1158015611bbb573d6000803e3d6000fd5b505050506040513d6020811015611bd157600080fd5b810190808051906020019092919050505014151515611c58576040517f08c379a00000000000000000000000000000000000000000000000000000000081526004018080602001828103825260118152602001807f61646472657373206973206e6f7420414100000000000000000000000000000081525060200191505060405180910390fd5b6001915050919050565b60006060600083518551141515611ce1576040517f08c379a000000000000000000000000000000000000000000000000000000000815260040180806020018281038252601d8152602001807f746f7069632c20697373756572206c656e677468206d69736d6174636800000081525060200191505060405180910390fd5b81866040516020018083805190602001908083835b602083101515611d1b5780518252602082019150602081019050602083039250611cf6565b6001836020036101000a0380198251168184511680821785525050505050509050018273ffffffffffffffffffffffffffffffffffffffff1673ffffffffffffffffffffffffffffffffffffffff166c01000000000000000000000000028152601401925050506040516020818303038152906040529150600090505b8451811015611e9657818582815181101515611db057fe5b906020019060200201518583815181101515611dc857fe5b906020019060200201516040516020018084805190602001908083835b602083101515611e0a5780518252602082019150602081019050602083039250611de5565b6001836020036101000a0380198251168184511680821785525050505050509050018381526020018273ffffffffffffffffffffffffffffffffffffffff1673ffffffffffffffffffffffffffffffffffffffff166c01000000000000000000000000028152601401935050505060405160208183030381529060405291508080600101915050611d98565b816040518082805190602001908083835b602083101515611ecc5780518252602082019150602081019050602083039250611ea7565b6001836020036101000a0380198251168184511680821785525050505050509050019150506040518091039020925050509392505050565b60056020528060005260406000206000915090505481565b60008060009054906101000a900473ffffffffffffffffffffffffffffffffffffffff16905090565b60008060009054906101000a900473ffffffffffffffffffffffffffffffffffffffff1673ffffffffffffffffffffffffffffffffffffffff163373ffffffffffffffffffffffffffffffffffffffff1614905090565b600080606080600080600060606000611fb3613e49565b600460008c6000191660001916815260200190815260200160002061012060405190810160405290816000820154600019166000191681526020016001820154600019166000191681526020016002820160009054906101000a900473ffffffffffffffffffffffffffffffffffffffff1673ffffffffffffffffffffffffffffffffffffffff1673ffffffffffffffffffffffffffffffffffffffff168152602001600382018054806020026020016040519081016040528092919081815260200182805480156120da57602002820191906000526020600020905b8160009054906101000a900473ffffffffffffffffffffffffffffffffffffffff1673ffffffffffffffffffffffffffffffffffffffff1681526020019060010190808311612090575b505050505081526020016004820180548060200260200160405190810160405280929190818152602001828054801561213257602002820191906000526020600020905b81548152602001906001019080831161211e575b5050505050815260200160058201546000191660001916815260200160068201548152602001600782018054600181600116156101000203166002900480601f0160208091040260200160405190810160405280929190818152602001828054600181600116156101000203166002900480156121f05780601f106121c5576101008083540402835291602001916121f0565b820191906000526020600020905b8154815290600101906020018083116121d357829003601f168201915b505050505081526020016008820154815250509050806000015181604001518260600151836080015184602001518560a001518660c001518760e00151886101000151869650859550819150995099509950995099509950995099509950509193959799909294969850565b6000803373ffffffffffffffffffffffffffffffffffffffff1660046000856000191660001916815260200190815260200160002060020160009054906101000a900473ffffffffffffffffffffffffffffffffffffffff1673ffffffffffffffffffffffffffffffffffffffff16141515612340576040517f08c379a00000000000000000000000000000000000000000000000000000000081526004018080602001828103825260158152602001807f73656e646572206973206e6f742063726561746f72000000000000000000000081525060200191505060405180910390fd5b6005600084600019166000191681526020019081526020016000205490506000600560008560001916600019168152602001908152602001600020819055503373ffffffffffffffffffffffffffffffffffffffff166108fc829081150290604051600060405180830381858888f193505050501580156123c5573d6000803e3d6000fd5b5082600019167ff35d42b9c311ce9dadd88de9b62d1ff91144843421993199963f32fc1c1ce6b2826040518082815260200191505060405180910390a26001915050919050565b60008060008060008060606000600160009054906101000a900473ffffffffffffffffffffffffffffffffffffffff1673ffffffffffffffffffffffffffffffffffffffff16630d2020dd6040518163ffffffff167c010000000000000000000000000000000000000000000000000000000002815260040180807f4964656e746974794d616e6167657200000000000000000000000000000000008152506020019050602060405180830381600087803b1580156124ca57600080fd5b505af11580156124de573d6000803e3d6000fd5b505050506040513d60208110156124f457600080fd5b810190808051906020019092919050505096508673ffffffffffffffffffffffffffffffffffffffff166312459b00336040518263ffffffff167c0100000000000000000000000000000000000000000000000000000000028152600401808273ffffffffffffffffffffffffffffffffffffffff1673ffffffffffffffffffffffffffffffffffffffff168152602001915050602060405180830381600087803b1580156125a257600080fd5b505af11580156125b6573d6000803e3d6000fd5b505050506040513d60208110156125cc57600080fd5b81019080805190602001909291905050501515612677576040517f08c379a00000000000000000000000000000000000000000000000000000000081526004018080602001828103825260358152602001807f6d73672e73656e646572206973206e6f74206964656e7469747920637265617481526020017f6564206279204964656e746974794d616e61676572000000000000000000000081525060400191505060405180910390fd5b339450600095505b600460008a6000191660001916815260200190815260200160002060040180549050861015612bc65773ffffffffffffffffffffffffffffffffffffffff8016600460008b60001916600019168152602001908152602001600020600301878154811015156126ea57fe5b9060005260206000200160009054906101000a900473ffffffffffffffffffffffffffffffffffffffff1673ffffffffffffffffffffffffffffffffffffffff1614156127e95761277033600460008c600019166000191681526020019081526020016000206004018881548110151561276057fe5b9060005260206000200154611045565b15156127e4576040517f08c379a00000000000000000000000000000000000000000000000000000000081526004018080602001828103825260158152602001807f53656c662d436c61696d2070726f7665204661696c000000000000000000000081525060200191505060405180910390fd5b612bb9565b600460008a600019166000191681526020019081526020016000206003018681548110151561281457fe5b9060005260206000200160009054906101000a900473ffffffffffffffffffffffffffffffffffffffff16600460008b600019166000191681526020019081526020016000206004018781548110151561286a57fe5b9060005260206000200154604051602001808373ffffffffffffffffffffffffffffffffffffffff1673ffffffffffffffffffffffffffffffffffffffff166c01000000000000000000000000028152601401828152602001925050506040516020818303038152906040526040518082805190602001908083835b60208310151561290b57805182526020820191506020810190506020830392506128e6565b6001836020036101000a038019825116818451168082178552505050505050905001915050604051809103902092508473ffffffffffffffffffffffffffffffffffffffff1663c9100bcb846040518263ffffffff167c0100000000000000000000000000000000000000000000000000000000028152600401808260001916600019168152602001915050600060405180830381600087803b1580156129b157600080fd5b505af11580156129c5573d6000803e3d6000fd5b505050506040513d6000823e3d601f19601f8201168201806040525060c08110156129ef57600080fd5b810190808051906020019092919080519060200190929190805190602001909291908051640100000000811115612a2557600080fd5b82810190506020810184811115612a3b57600080fd5b8151856001820283011164010000000082111715612a5857600080fd5b50509291906020018051640100000000811115612a7457600080fd5b82810190506020810184811115612a8a57600080fd5b8151856001820283011164010000000082111715612aa757600080fd5b50509291906020018051640100000000811115612ac357600080fd5b82810190506020810184811115612ad957600080fd5b8151856001820283011164010000000082111715612af657600080fd5b5050929190505050909192939450909192935090915090505080945050600073ffffffffffffffffffffffffffffffffffffffff168473ffffffffffffffffffffffffffffffffffffffff1614151515612bb8576040517f08c379a000000000000000000000000000000000000000000000000000000000815260040180806020018281038252600f8152602001807f436c61696d206e6f74206578697374000000000000000000000000000000000081525060200191505060405180910390fd5b5b858060010196505061267f565b600460008a6000191660001916815260200190815260200160002060060154600560008b600019166000191681526020019081526020016000205410151515612c77576040517f08c379a00000000000000000000000000000000000000000000000000000000081526004018080602001828103825260148152602001807f726577617264206973206e6f7420656e6f75676800000000000000000000000081525060200191505060405180910390fd5b612cc3600460008b6000191660001916815260200190815260200160002060060154600560008c6000191660001916815260200190815260200160002054613d2e90919063ffffffff16565b600560008b60001916600019168152602001908152602001600020819055503373ffffffffffffffffffffffffffffffffffffffff16639010f72660016040518263ffffffff167c010000000000000000000000000000000000000000000000000000000002815260040180828152602001915050600060405180830381600087803b158015612d5257600080fd5b505af1158015612d66573d6000803e3d6000fd5b505050506040513d6000823e3d601f19601f820116820180604052506020811015612d9057600080fd5b810190808051640100000000811115612da857600080fd5b82810190506020810184811115612dbe57600080fd5b8151856020820283011164010000000082111715612ddb57600080fd5b50509291905050509150816000815181101515612df457fe5b906020019060200201516001900473ffffffffffffffffffffffffffffffffffffffff166108fc600460008c60001916600019168152602001908152602001600020600601549081150290604051600060405180830381858888f19350505050158015612e65573d6000803e3d6000fd5b50600160009054906101000a900473ffffffffffffffffffffffffffffffffffffffff1673ffffffffffffffffffffffffffffffffffffffff16630d2020dd6040518163ffffffff167c010000000000000000000000000000000000000000000000000000000002815260040180807f416368696576656d656e740000000000000000000000000000000000000000008152506020019050602060405180830381600087803b158015612f1757600080fd5b505af1158015612f2b573d6000803e3d6000fd5b505050506040513d6020811015612f4157600080fd5b810190808051906020019092919050505090508073ffffffffffffffffffffffffffffffffffffffff1663d3fc986433338c604051602001808373ffffffffffffffffffffffffffffffffffffffff1673ffffffffffffffffffffffffffffffffffffffff166c010000000000000000000000000281526014018260001916600019168152602001925050506040516020818303038152906040526040518082805190602001908083835b6020831015156130115780518252602082019150602081019050602083039250612fec565b6001836020036101000a03801982511681845116808217855250505050505090500191505060405180910390206001900442600460008f6000191660001916815260200190815260200160002060070160405160200180838152602001828054600181600116156101000203166002900480156130c55780601f106130a35761010080835404028352918201916130c5565b820191906000526020600020905b8154815290600101906020018083116130b1575b5050925050506040516020818303038152906040526040518463ffffffff167c0100000000000000000000000000000000000000000000000000000000028152600401808473ffffffffffffffffffffffffffffffffffffffff1673ffffffffffffffffffffffffffffffffffffffff16815260200183815260200180602001828103825283818151815260200191508051906020019080838360005b8381101561317d578082015181840152602081019050613162565b50505050905090810190601f1680156131aa5780820380516001836020036101000a031916815260200191505b50945050505050602060405180830381600087803b1580156131cb57600080fd5b505af11580156131df573d6000803e3d6000fd5b505050506040513d60208110156131f557600080fd5b8101908080519060200190929190505050151561327a576040517f08c379a000000000000000000000000000000000000000000000000000000000815260040180806020018281038252601c8152602001807f616368696576656d656e742063616e6e6f74206265206d696e7465640000000081525060200191505060405180910390fd5b3373ffffffffffffffffffffffffffffffffffffffff1689600019167f82f6dc274898d7696c128069eb2d5f4461a6640dae9ca23c13de74eb47ca2b0b600460008d60001916600019168152602001908152602001600020600601548560008151811015156132e557fe5b9060200190602002015160019004604051808381526020018273ffffffffffffffffffffffffffffffffffffffff1673ffffffffffffffffffffffffffffffffffffffff1681526020019250505060405180910390a36001975050505050505050919050565b613353611f45565b151561335e57600080fd5b80600160006101000a81548173ffffffffffffffffffffffffffffffffffffffff021916908373ffffffffffffffffffffffffffffffffffffffff16021790555050565b6000806000806133b0613e49565b6133b933611a19565b151561342d576040517f08c379a00000000000000000000000000000000000000000000000000000000081526004018080602001828103825260148152602001807f6d73672e73656e646572206973206e6f7420414100000000000000000000000081525060200191505060405180910390fd5b60035434101515156134a7576040517f08c379a00000000000000000000000000000000000000000000000000000000081526004018080602001828103825260158152602001807f6465706f736974206973206e6f7420656e6f756768000000000000000000000081525060200191505060405180910390fd5b600160009054906101000a900473ffffffffffffffffffffffffffffffffffffffff1673ffffffffffffffffffffffffffffffffffffffff16630d2020dd6040518163ffffffff167c010000000000000000000000000000000000000000000000000000000002815260040180807f546f7069635265676973747279000000000000000000000000000000000000008152506020019050602060405180830381600087803b15801561355857600080fd5b505af115801561356c573d6000803e3d6000fd5b505050506040513d602081101561358257600080fd5b81019080805190602001909291905050509350600092505b8a5183101561385f57600083111561371d578a600184038151811015156135bd57fe5b906020019060200201518b848151811015156135d557fe5b90602001906020020151108061368357508a600184038151811015156135f757fe5b906020019060200201518b8481518110151561360f57fe5b906020019060200201511480156136825750896001840381518110151561363257fe5b9060200190602002015173ffffffffffffffffffffffffffffffffffffffff168a8481518110151561366057fe5b9060200190602002015173ffffffffffffffffffffffffffffffffffffffff16145b5b1561371c576040517f08c379a00000000000000000000000000000000000000000000000000000000081526004018080602001828103825260238152602001807f546f70696320616e642049737375657220636f6e646974696f6e20697320777281526020017f6f6e67000000000000000000000000000000000000000000000000000000000081525060400191505060405180910390fd5b5b8373ffffffffffffffffffffffffffffffffffffffff1663579a69888c8581518110151561374757fe5b906020019060200201516040518263ffffffff167c010000000000000000000000000000000000000000000000000000000002815260040180828152602001915050602060405180830381600087803b1580156137a357600080fd5b505af11580156137b7573d6000803e3d6000fd5b505050506040513d60208110156137cd57600080fd5b81019080805190602001909291905050501515613852576040517f08c379a00000000000000000000000000000000000000000000000000000000081526004018080602001828103825260148152602001807f746f706963206e6f74207265676973746572656400000000000000000000000081525060200191505060405180910390fd5b828060010193505061359a565b61386a338c8c611c62565b915060006001026004600084600019166000191681526020019081526020016000206000015460001916141515613909576040517f08c379a000000000000000000000000000000000000000000000000000000000815260040180806020018281038252601a8152602001807f616368696576656d656e7420616c72656164792065786973747300000000000081525060200191505060405180910390fd5b818160000190600019169081600019168152505033816040019073ffffffffffffffffffffffffffffffffffffffff16908173ffffffffffffffffffffffffffffffffffffffff16815250508981606001819052508a81608001819052508881602001906000191690816000191681525050878160a001906000191690816000191681525050858160e00181905250868160c001818152505042816101000181815250508060046000836000015160001916600019168152602001908152602001600020600082015181600001906000191690556020820151816001019060001916905560408201518160020160006101000a81548173ffffffffffffffffffffffffffffffffffffffff021916908373ffffffffffffffffffffffffffffffffffffffff1602179055506060820151816003019080519060200190613a50929190613eb5565b506080820151816004019080519060200190613a6d929190613f3f565b5060a0820151816005019060001916905560c0820151816006015560e0820151816007019080519060200190613aa4929190613f8c565b5061010082015181600801559050506006829080600181540180825580915050906001820390600052602060002001600090919290919091509060001916905550346005600084600019166000191681526020019081526020016000208190555081600019167fdebdabb26fa499a98c2bec69c54183d67f0ca99a9c5811dc76bb71c6fa568a6d8c8c348a4260405180806020018060200186815260200180602001858152602001848103845289818151815260200191508051906020019060200280838360005b83811015613b87578082015181840152602081019050613b6c565b50505050905001848103835288818151815260200191508051906020019060200280838360005b83811015613bc9578082015181840152602081019050613bae565b50505050905001848103825286818151815260200191508051906020019080838360005b83811015613c08578082015181840152602081019050613bed565b50505050905090810190601f168015613c355780820380516001836020036101000a031916815260200191505b509850505050505050505060405180910390a260019450505050509695505050505050565b6000613c8a3460056000856000191660001916815260200190815260200160002054613d0d90919063ffffffff16565b6005600084600019166000191681526020019081526020016000208190555081600019167f4fb86a557ac897d1597978003506b08bd6b05dc447c004e1aeb9efb62c6db4d7346040518082815260200191505060405180910390a260019050919050565b613cf6611f45565b1515613d0157600080fd5b613d0a81613d4f565b50565b6000808284019050838110151515613d2457600080fd5b8091505092915050565b600080838311151515613d4057600080fd5b82840390508091505092915050565b600073ffffffffffffffffffffffffffffffffffffffff168173ffffffffffffffffffffffffffffffffffffffff1614151515613d8b57600080fd5b8073ffffffffffffffffffffffffffffffffffffffff166000809054906101000a900473ffffffffffffffffffffffffffffffffffffffff1673ffffffffffffffffffffffffffffffffffffffff167f8be0079c531659141344cd1fd0a4f28419497f9722a3daafe3b4186f6b6457e060405160405180910390a3806000806101000a81548173ffffffffffffffffffffffffffffffffffffffff021916908373ffffffffffffffffffffffffffffffffffffffff16021790555050565b610120604051908101604052806000801916815260200160008019168152602001600073ffffffffffffffffffffffffffffffffffffffff1681526020016060815260200160608152602001600080191681526020016000815260200160608152602001600081525090565b828054828255906000526020600020908101928215613f2e579160200282015b82811115613f2d5782518260006101000a81548173ffffffffffffffffffffffffffffffffffffffff021916908373ffffffffffffffffffffffffffffffffffffffff16021790555091602001919060010190613ed5565b5b509050613f3b919061400c565b5090565b828054828255906000526020600020908101928215613f7b579160200282015b82811115613f7a578251825591602001919060010190613f5f565b5b509050613f88919061404f565b5090565b828054600181600116156101000203166002900490600052602060002090601f016020900481019282601f10613fcd57805160ff1916838001178555613ffb565b82800160010185558215613ffb579182015b82811115613ffa578251825591602001919060010190613fdf565b5b509050614008919061404f565b5090565b61404c91905b8082111561404857600081816101000a81549073ffffffffffffffffffffffffffffffffffffffff021916905550600101614012565b5090565b90565b61407191905b8082111561406d576000816000905550600101614055565b5090565b905600a165627a7a723058207c710b8b9f81abd8dd396e6ddfa49ad21fa6532acc6405d75d589bc15126c03b0029",
  "source": "pragma solidity ^0.4.24;\n\nimport \"openzeppelin-solidity/contracts/math/SafeMath.sol\";\nimport \"../identity/ERC735.sol\";\nimport \"../identity/ERC725.sol\";\nimport \"../RegistryUser.sol\";\nimport \"../registry/TopicRegistry.sol\";\nimport \"../interface/IAchievement.sol\";\nimport \"../interface/IIdentityManager.sol\";\nimport \"../interface/IAttestationAgencyRegistry.sol\";\n\n/**\n * @title AchievementManager\n * @dev AchievementManager Contract used to manage achievement system in metadium\n * The permissinoed participant can CRUD the achievement.\n */\ncontract AchievementManager is RegistryUser {\n    using SafeMath for uint256;\n\n    uint256 public minimumDeposit = 1 * 10 ** 18;\n\n    mapping(bytes32 => Achievement) public achievements; // achievementId => achievement\n    mapping(bytes32 => uint256) public balance; // achievementId => balance\n\n    bytes32[] public allAchievements;\n\n    event CreateAchievement(bytes32 indexed achievementId, uint256[] topics, address[] issuers, uint256 staked, string uri, uint256 createdAt);\n    event UpdateAchievement(bytes32 indexed achievementId, uint256 reward, uint256 charge);\n    event FundAchievement(bytes32 indexed achievementId, uint256 charge);\n    event DeleteAchievement(bytes32 indexed achievementId, uint256 refund);\n    event RequestAchievement(bytes32 indexed achievementId, address indexed receiver, uint256 reward, address rewarded);\n\n    struct Achievement {\n        bytes32 id;\n        bytes32 title;\n        address creator;\n        address[] issuers;\n        uint256[] claimTopics;\n        bytes32 explanation;\n        uint256 reward;\n        string uri;\n        uint256 createdAt;\n    }\n\n    constructor() public {\n        THIS_NAME = \"AchievementManager\";\n    }\n\n    function isAAttestationAgency(address _addr) public view returns(bool found) {\n        \n        IAttestationAgencyRegistry ar = IAttestationAgencyRegistry(REG.getContractAddress(\"AttestationAgencyRegistry\"));\n        require(ar.isRegistered(_addr) != 0, \"address is not AA\");\n\n        return true;\n    }\n\n    modifier onlyAttestationAgency() {\n        require(isAAttestationAgency(msg.sender), \"msg.sender is not AA\");\n        _;\n    }\n\n    /**\n     * @dev Create Achievement. Topics should be registered first.\n     * topic & issuer term cannot be same simultaneously with the previos one.\n     * @param _topics registered topics, ascending order (1,10,10, 100)\n     * @param _issuers issuers for each topic\n     * @param _title title\n     * @param _achievementExplanation achievement explanation\n     * @param _reward reward in meta when user request acievement\n     * @param _uri basically used for ipfs id or something\n     * @return A boolean that indicates if the operation was successful.\n     */\n    function createAchievement(uint256[] _topics, address[] _issuers, bytes32 _title, bytes32 _achievementExplanation, uint256 _reward, string _uri)\n    public\n    onlyAttestationAgency\n    payable returns (bool success)\n    {\n\n        //check staking amount used for reward\n        require(msg.value >= minimumDeposit, \"deposit is not enough\");\n\n        //topics should be registered already\n        TopicRegistry topicRegistry = TopicRegistry(REG.getContractAddress(\"TopicRegistry\"));\n        for (uint256 i = 0;i<_topics.length;i++) {\n            if (i > 0) {\n                if (\n                    _topics[i] < _topics[i-1] ||\n                    (_topics[i] == _topics[i-1] && _issuers[i] == _issuers[i-1])\n\n                ) {\n                    revert(\"Topic and Issuer condition is wrong\");\n                }\n            }\n            require(topicRegistry.isRegistered(_topics[i]), \"topic not registered\");\n        }\n\n        //check if achievement is already registered\n        bytes32 achievementId = getAchievementId(msg.sender, _topics, _issuers);\n        require(achievements[achievementId].id == 0, \"achievement already exists\");\n\n\n        Achievement memory newAc;\n        newAc.id = achievementId;\n        newAc.creator = msg.sender;\n        newAc.issuers = _issuers;\n        newAc.claimTopics = _topics;\n        newAc.title = _title;\n        newAc.explanation = _achievementExplanation;\n        newAc.uri = _uri;\n        newAc.reward = _reward;\n        newAc.createdAt = block.timestamp;\n\n        achievements[newAc.id] = newAc;\n        allAchievements.push(achievementId);\n        balance[achievementId] = msg.value;\n\n        emit CreateAchievement(achievementId, _topics, _issuers, msg.value, _uri, block.timestamp);\n\n        return true;\n    }\n\n    /**\n     * @dev Update Achievement. Fund can be charged through this, and reward can be set newly.\n     * @param _achievementId achievementId\n     * @param _reward new reward\n     * @return A boolean that indicates if the operation was successful.\n     */\n    function updateAchievement(bytes32 _achievementId, uint256 _reward) public payable returns (bool success) {\n        //Only creator can charge fund in update\n        require(achievements[_achievementId].creator == msg.sender, \"sender is not creator\");\n\n        achievements[_achievementId].reward = _reward;\n        balance[_achievementId] = balance[_achievementId].add(msg.value);\n        emit UpdateAchievement(_achievementId, _reward, msg.value);\n        return true;\n    }\n\n    /**\n     * @dev fund Achievement. Anyone can fund the achievement.\n     * @param _achievementId achievementId\n     * @return A boolean that indicates if the operation was successful.\n     */\n    function fundAchievement(bytes32 _achievementId) public payable returns (bool success) {\n        balance[_achievementId] = balance[_achievementId].add(msg.value);\n        emit FundAchievement(_achievementId, msg.value);\n        return true;\n    }\n\n    /**\n     * @dev Delete Achievement. This function DOES NOT actually delete achievement.\n     * Just refund to the creator.\n     * @param _achievementId achievementId\n     * @return A boolean that indicates if the operation was successful.\n     */\n    function deleteAchievement(bytes32 _achievementId) public returns (bool success) {\n        //Only creator can refund\n        require(achievements[_achievementId].creator == msg.sender, \"sender is not creator\");\n\n        uint256 rest = balance[_achievementId];\n        \n        balance[_achievementId] = 0;\n        msg.sender.transfer(rest);\n        \n        emit DeleteAchievement(_achievementId, rest);\n\n        return true;\n    }\n    /**\n     * @dev Request achievement. If user have proper claims, user get acievement(ERC721) token and meta reward\n     * @param _achievementId _achievementId user want to request\n     * @return A boolean that indicates if the operation was successful.\n     */\n    function requestAchievement(bytes32 _achievementId) public returns (bool success) {\n        // check whether msg.sender is deployed using IdentityManager\n        IIdentityManager im = IIdentityManager(REG.getContractAddress(\"IdentityManager\"));\n        require(im.isMetaId(msg.sender), \"msg.sender is not identity created by IdentityManager\");\n        \n        uint256 i;\n        ERC735 identity = ERC735(msg.sender);\n        // // check if sender has enough claims\n        for (i = 0;i<achievements[_achievementId].claimTopics.length;i++) {\n            address issuer;\n            // check this claim issuer is for self claim\n            if (achievements[_achievementId].issuers[i] == 0xFFfFfFffFFfffFFfFFfFFFFFffFFFffffFfFFFfF) {\n                //self claim\n                //bytes32 claimId = keccak256(abi.encodePacked(msg.sender, achievements[_achievementId].claimTopics[i]));\n                //check msg.sender is erc735 implementation\n                //\n                //identity.getClaimIdsByType(achievements[_achievementId].claimTopics[i]);\n                require(hasSelfClaim(msg.sender, achievements[_achievementId].claimTopics[i]), \"Self-Claim prove Fail\");\n\n            }else {\n                // claimId is made by topic and issuer.\n                bytes32 claimId = keccak256(abi.encodePacked(achievements[_achievementId].issuers[i], achievements[_achievementId].claimTopics[i]));\n                (, , issuer, , , ) = identity.getClaim(claimId); // getClaim returns (topic, scheme, issuer, signature, data, uri)\n                require(issuer != address(0), \"Claim not exist\");\n            }\n\n        }\n        \n        // give reward to msg.sender(identity contract)'s 0th managementKey\n        require(balance[_achievementId] >= achievements[_achievementId].reward, \"reward is not enough\");\n        balance[_achievementId] = balance[_achievementId].sub(achievements[_achievementId].reward);\n\n        bytes32[] memory managementKeys = ERC725(msg.sender).getKeysByPurpose(1); // 1 : MANAGEMENT KEY\n        address(managementKeys[0]).transfer(achievements[_achievementId].reward); // reward goes to the 0th management key\n        // msg.sender.transfer(achievements[_achievementId].reward);\n        \n        \n\n        // mint achievement erc721 to msg.sender;\n        IAchievement achievement = IAchievement(REG.getContractAddress(\"Achievement\"));\n        require(achievement.mint(msg.sender, uint256(keccak256(abi.encodePacked(msg.sender, _achievementId))), string(abi.encodePacked(block.timestamp,achievements[_achievementId].uri))), \"achievement cannot be minted\");\n        \n        emit RequestAchievement(_achievementId, msg.sender, achievements[_achievementId].reward, address(managementKeys[0]));\n\n        return true;\n    }\n\n\n    function hasSelfClaim(address _identity, uint256 _topic) public view returns (bool) {\n        bytes32[] memory claims = ERC735(_identity).getClaimIdsByType(_topic);\n        address c;\n        for (uint256 i = 0;i<claims.length;i++) {\n            (, , c, , ,) = ERC735(_identity).getClaim(claims[i]);\n            //3: CLAIM signer keys, used to sign claims on other identities which need to be revokable.\n            //bytes32(address) : addrToKey(addr)\n            if (ERC725(_identity).keyHasPurpose(bytes32(c), 3) || c == msg.sender) {\n                //true if isuuer is identity's claim key or smart contract identity itself\n                return true;\n            }\n            \n        }\n        return false;\n\n    }\n    function getAllAchievementList() public view returns (bytes32[] list) {\n        return allAchievements;\n    }\n\n    //TODO : achievement with proper balance\n    function getActiveAchievementList() public view returns(bytes32[] list) {\n        return allAchievements;\n    }\n\n    function getLengthOfAchievements() public view returns(uint256 length) {\n        return allAchievements.length;\n    }\n\n    function getAchievementById(bytes32 _achievementId) public view returns(bytes32 id, address creator, address[] issuers, uint256[] claimTopics, bytes32 title, bytes32 explanation, uint256 reward, string uri, uint256 createdAt) {\n        Achievement memory ac = achievements[_achievementId];\n        return (\n            ac.id, \n            ac.creator, \n            ac.issuers, \n            ac.claimTopics, \n            ac.title, \n            ac.explanation, \n            ac.reward, \n            ac.uri,\n            ac.createdAt\n            );\n    }\n\n    function getAchievementByIndex(uint256 _index) public view returns(bytes32 id, address creator, address[] issuers, uint256[] claimTopics, bytes32 title, bytes32 explanation, uint256 reward, string uri, uint256 createdAt) {\n        bytes32 _achievementId = allAchievements[_index];\n        return (\n            achievements[_achievementId].id, \n            achievements[_achievementId].creator, \n            achievements[_achievementId].issuers, \n            achievements[_achievementId].claimTopics, \n            achievements[_achievementId].title, \n            achievements[_achievementId].explanation, \n            achievements[_achievementId].reward, \n            achievements[_achievementId].uri,\n            achievements[_achievementId].createdAt\n            );\n\n    }\n\n    /**\n     * @dev Get achievement id. an achievement ID is unique with given params.\n     * achievementId = keccak256(abi.encodePacked(creator, topic1, issuer1, topic2, issuer2, ...))\n     * @param creator achievement creator\n     * @param topics topics achievement requirements\n     * @param issuers issuers achievement requirements\n     * @return A boolean that indicates if the operation was successful.\n     */\n    function getAchievementId(address creator, uint256[] topics, address[] issuers) public pure returns(bytes32 id) {\n        bytes memory idBytes;\n        \n        require(topics.length == issuers.length, \"topic, issuer length mismatch\");\n        \n        idBytes = abi.encodePacked(idBytes, creator);\n\n        for (uint i = 0;i<topics.length;i++) {\n            idBytes = abi.encodePacked(idBytes, topics[i], issuers[i]);\n        }\n        return keccak256(idBytes);\n    }\n\n}\n",
  "sourcePath": "/Users/hexoul/Documents/Metadium/metabolics/contracts/property/AchievementManager.sol",
  "compiler": {
    "name": "solc",
    "version": "0.4.24+commit.e67f0147.Emscripten.clang"
  },
  "schemaVersion": "2.0.1",
  "updatedAt": "2019-03-19T07:21:36.529Z"
}