{
  "contractName": "AMetaIdentityProxy",
  "abi": [
    {
      "constant": true,
      "inputs": [],
      "name": "actionThreshold",
      "outputs": [
        {
          "name": "",
          "type": "uint256"
        }
      ],
      "payable": false,
      "stateMutability": "view",
      "type": "function"
    },
    {
      "constant": true,
      "inputs": [],
      "name": "paused",
      "outputs": [
        {
          "name": "",
          "type": "bool"
        }
      ],
      "payable": false,
      "stateMutability": "view",
      "type": "function"
    },
    {
      "constant": true,
      "inputs": [
        {
          "name": "",
          "type": "uint256"
        }
      ],
      "name": "execution",
      "outputs": [
        {
          "name": "to",
          "type": "address"
        },
        {
          "name": "value",
          "type": "uint256"
        },
        {
          "name": "data",
          "type": "bytes"
        },
        {
          "name": "needsApprove",
          "type": "uint256"
        }
      ],
      "payable": false,
      "stateMutability": "view",
      "type": "function"
    },
    {
      "constant": true,
      "inputs": [
        {
          "name": "",
          "type": "uint256"
        },
        {
          "name": "",
          "type": "uint256"
        }
      ],
      "name": "approved",
      "outputs": [
        {
          "name": "",
          "type": "address"
        }
      ],
      "payable": false,
      "stateMutability": "view",
      "type": "function"
    },
    {
      "constant": true,
      "inputs": [],
      "name": "managementThreshold",
      "outputs": [
        {
          "name": "",
          "type": "uint256"
        }
      ],
      "payable": false,
      "stateMutability": "view",
      "type": "function"
    },
    {
      "constant": true,
      "inputs": [],
      "name": "nonce",
      "outputs": [
        {
          "name": "",
          "type": "uint256"
        }
      ],
      "payable": false,
      "stateMutability": "view",
      "type": "function"
    },
    {
      "constant": true,
      "inputs": [],
      "name": "numClaims",
      "outputs": [
        {
          "name": "",
          "type": "uint256"
        }
      ],
      "payable": false,
      "stateMutability": "view",
      "type": "function"
    }
  ],
  "bytecode": "0x60806040526001600355600160045534801561001a57600080fd5b5061044d8061002a6000396000f300608060405260043610610083576000357c0100000000000000000000000000000000000000000000000000000000900463ffffffff16806338f4edd4146100885780635c975abb146100b35780635dccebba146100e25780636e4c4311146101c9578063aa0a514214610240578063affed0e01461026b578063fc0fc84914610296575b600080fd5b34801561009457600080fd5b5061009d6102c1565b6040518082815260200191505060405180910390f35b3480156100bf57600080fd5b506100c86102c7565b604051808215151515815260200191505060405180910390f35b3480156100ee57600080fd5b5061010d600480360381019080803590602001909291905050506102da565b604051808573ffffffffffffffffffffffffffffffffffffffff1673ffffffffffffffffffffffffffffffffffffffff16815260200184815260200180602001838152602001828103825284818151815260200191508051906020019080838360005b8381101561018b578082015181840152602081019050610170565b50505050905090810190601f1680156101b85780820380516001836020036101000a031916815260200191505b509550505050505060405180910390f35b3480156101d557600080fd5b506101fe60048036038101908080359060200190929190803590602001909291905050506103c2565b604051808273ffffffffffffffffffffffffffffffffffffffff1673ffffffffffffffffffffffffffffffffffffffff16815260200191505060405180910390f35b34801561024c57600080fd5b5061025561040f565b6040518082815260200191505060405180910390f35b34801561027757600080fd5b50610280610415565b6040518082815260200191505060405180910390f35b3480156102a257600080fd5b506102ab61041b565b6040518082815260200191505060405180910390f35b60045481565b600160009054906101000a900460ff1681565b60086020528060005260406000206000915090508060000160009054906101000a900473ffffffffffffffffffffffffffffffffffffffff1690806001015490806002018054600181600116156101000203166002900480601f0160208091040260200160405190810160405280929190818152602001828054600181600116156101000203166002900480156103b25780601f10610387576101008083540402835291602001916103b2565b820191906000526020600020905b81548152906001019060200180831161039557829003601f168201915b5050505050908060030154905084565b6009602052816000526040600020818154811015156103dd57fe5b906000526020600020016000915091509054906101000a900473ffffffffffffffffffffffffffffffffffffffff1681565b60035481565b60025481565b600c54815600a165627a7a723058200e4cfacd934ac5873d4d428cdd26dbf40cae2c56f5b8ba78fd258e0ca4c482b70029",
  "source": "pragma solidity ^0.4.24;\n\nimport \"../interface/IReg.sol\";\nimport \"../identity/ClaimManager.sol\";\nimport \"../identity/MultiSig.sol\";\nimport \"../identity/KeyStore.sol\";\n\n\ncontract AMetaIdentityProxy {\n    mapping(bytes4 => bool) internal supportedInterfaces;\n\n    bool public paused;\n    uint256 public nonce;\n\n    uint256 public managementThreshold = 1;\n    uint256 public actionThreshold = 1;\n\n    using KeyStore for KeyStore.Keys;\n    KeyStore.Keys internal allKeys;\n\n    mapping (uint256 => MultiSig.Execution) public execution;\n    mapping (uint256 => address[]) public approved;\n\n    mapping(bytes32 => ClaimManager.Claim) internal claims;\n    mapping(uint256 => bytes32[]) internal claimsByTopic;\n    uint256 public numClaims;\n\n    IReg REG;\n}",
  "sourcePath": "/Users/hexoul/Documents/Metadium/metabolics/contracts/abstract/AMetaIdentityProxy.sol",
  "compiler": {
    "name": "solc",
    "version": "0.4.24+commit.e67f0147.Emscripten.clang"
  },
  "schemaVersion": "2.0.1",
  "updatedAt": "2019-03-19T07:21:36.510Z"
}