{
  "contractName": "MetaIdentityProxy",
  "abi": [
    {
      "constant": true,
      "inputs": [],
      "name": "actionThreshold",
      "outputs": [
        {
          "name": "",
          "type": "uint256"
        }
      ],
      "payable": false,
      "stateMutability": "view",
      "type": "function"
    },
    {
      "constant": true,
      "inputs": [],
      "name": "paused",
      "outputs": [
        {
          "name": "",
          "type": "bool"
        }
      ],
      "payable": false,
      "stateMutability": "view",
      "type": "function"
    },
    {
      "constant": true,
      "inputs": [
        {
          "name": "",
          "type": "uint256"
        }
      ],
      "name": "execution",
      "outputs": [
        {
          "name": "to",
          "type": "address"
        },
        {
          "name": "value",
          "type": "uint256"
        },
        {
          "name": "data",
          "type": "bytes"
        },
        {
          "name": "needsApprove",
          "type": "uint256"
        }
      ],
      "payable": false,
      "stateMutability": "view",
      "type": "function"
    },
    {
      "constant": true,
      "inputs": [
        {
          "name": "",
          "type": "uint256"
        },
        {
          "name": "",
          "type": "uint256"
        }
      ],
      "name": "approved",
      "outputs": [
        {
          "name": "",
          "type": "address"
        }
      ],
      "payable": false,
      "stateMutability": "view",
      "type": "function"
    },
    {
      "constant": true,
      "inputs": [],
      "name": "managementThreshold",
      "outputs": [
        {
          "name": "",
          "type": "uint256"
        }
      ],
      "payable": false,
      "stateMutability": "view",
      "type": "function"
    },
    {
      "constant": true,
      "inputs": [],
      "name": "nonce",
      "outputs": [
        {
          "name": "",
          "type": "uint256"
        }
      ],
      "payable": false,
      "stateMutability": "view",
      "type": "function"
    },
    {
      "constant": true,
      "inputs": [],
      "name": "numClaims",
      "outputs": [
        {
          "name": "",
          "type": "uint256"
        }
      ],
      "payable": false,
      "stateMutability": "view",
      "type": "function"
    },
    {
      "inputs": [
        {
          "name": "_registry",
          "type": "address"
        },
        {
          "name": "_managementKey",
          "type": "address"
        }
      ],
      "payable": false,
      "stateMutability": "nonpayable",
      "type": "constructor"
    },
    {
      "payable": true,
      "stateMutability": "payable",
      "type": "fallback"
    },
    {
      "constant": true,
      "inputs": [],
      "name": "implementation",
      "outputs": [
        {
          "name": "",
          "type": "address"
        }
      ],
      "payable": false,
      "stateMutability": "view",
      "type": "function"
    },
    {
      "constant": false,
      "inputs": [
        {
          "name": "_addr",
          "type": "address"
        }
      ],
      "name": "setRegistry",
      "outputs": [
        {
          "name": "",
          "type": "bool"
        }
      ],
      "payable": false,
      "stateMutability": "nonpayable",
      "type": "function"
    },
    {
      "constant": true,
      "inputs": [],
      "name": "proxyType",
      "outputs": [
        {
          "name": "proxyTypeId",
          "type": "uint256"
        }
      ],
      "payable": false,
      "stateMutability": "pure",
      "type": "function"
    }
  ],
  "bytecode": "0x60806040526001600355600160045534801561001a57600080fd5b50604051604080610af0833981018060405281019080805190602001909291908051906020019092919050505060008060008060405180807f696e697428616464726573732900000000000000000000000000000000000000815250600d0190506040518091039020935085600d60006101000a81548173ffffffffffffffffffffffffffffffffffffffff021916908373ffffffffffffffffffffffffffffffffffffffff1602179055506100dd61010b640100000000026401000000009004565b9250602091508360005281823803600439600080600484016000866127105a03f490505050505050506101fe565b6000600d60009054906101000a900473ffffffffffffffffffffffffffffffffffffffff1673ffffffffffffffffffffffffffffffffffffffff16630d2020dd6040518163ffffffff167c010000000000000000000000000000000000000000000000000000000002815260040180807f4d65746149644c696272617279563100000000000000000000000000000000008152506020019050602060405180830381600087803b1580156101be57600080fd5b505af11580156101d2573d6000803e3d6000fd5b505050506040513d60208110156101e857600080fd5b8101908080519060200190929190505050905090565b6108e38061020d6000396000f3006080604052600436106100a4576000357c0100000000000000000000000000000000000000000000000000000000900463ffffffff16806338f4edd4146101135780634555d5c91461013e5780635c60da1b146101695780635c975abb146101c05780635dccebba146101ef5780636e4c4311146102d6578063a91ee0dc1461034d578063aa0a5142146103a8578063affed0e0146103d3578063fc0fc849146103fe575b60006100ae610429565b9050600073ffffffffffffffffffffffffffffffffffffffff168173ffffffffffffffffffffffffffffffffffffffff16141515156100ec57600080fd5b60405136600082376000803683855af43d806000843e816000811461010f578184f35b8184fd5b34801561011f57600080fd5b5061012861051c565b6040518082815260200191505060405180910390f35b34801561014a57600080fd5b50610153610522565b6040518082815260200191505060405180910390f35b34801561017557600080fd5b5061017e610429565b604051808273ffffffffffffffffffffffffffffffffffffffff1673ffffffffffffffffffffffffffffffffffffffff16815260200191505060405180910390f35b3480156101cc57600080fd5b506101d561052b565b604051808215151515815260200191505060405180910390f35b3480156101fb57600080fd5b5061021a6004803603810190808035906020019092919050505061053e565b604051808573ffffffffffffffffffffffffffffffffffffffff1673ffffffffffffffffffffffffffffffffffffffff16815260200184815260200180602001838152602001828103825284818151815260200191508051906020019080838360005b8381101561029857808201518184015260208101905061027d565b50505050905090810190601f1680156102c55780820380516001836020036101000a031916815260200191505b509550505050505060405180910390f35b3480156102e257600080fd5b5061030b6004803603810190808035906020019092919080359060200190929190505050610626565b604051808273ffffffffffffffffffffffffffffffffffffffff1673ffffffffffffffffffffffffffffffffffffffff16815260200191505060405180910390f35b34801561035957600080fd5b5061038e600480360381019080803573ffffffffffffffffffffffffffffffffffffffff169060200190929190505050610673565b604051808215151515815260200191505060405180910390f35b3480156103b457600080fd5b506103bd610763565b6040518082815260200191505060405180910390f35b3480156103df57600080fd5b506103e8610769565b6040518082815260200191505060405180910390f35b34801561040a57600080fd5b5061041361076f565b6040518082815260200191505060405180910390f35b6000600d60009054906101000a900473ffffffffffffffffffffffffffffffffffffffff1673ffffffffffffffffffffffffffffffffffffffff16630d2020dd6040518163ffffffff167c010000000000000000000000000000000000000000000000000000000002815260040180807f4d65746149644c696272617279563100000000000000000000000000000000008152506020019050602060405180830381600087803b1580156104dc57600080fd5b505af11580156104f0573d6000803e3d6000fd5b505050506040513d602081101561050657600080fd5b8101908080519060200190929190505050905090565b60045481565b60006002905090565b600160009054906101000a900460ff1681565b60086020528060005260406000206000915090508060000160009054906101000a900473ffffffffffffffffffffffffffffffffffffffff1690806001015490806002018054600181600116156101000203166002900480601f0160208091040260200160405190810160405280929190818152602001828054600181600116156101000203166002900480156106165780601f106105eb57610100808354040283529160200191610616565b820191906000526020600020905b8154815290600101906020018083116105f957829003601f168201915b5050505050908060030154905084565b60096020528160005260406000208181548110151561064157fe5b906000526020600020016000915091509054906101000a900473ffffffffffffffffffffffffffffffffffffffff1681565b60006106a53373ffffffffffffffffffffffffffffffffffffffff16600102600160056107759092919063ffffffff16565b1515610719576040517f08c379a00000000000000000000000000000000000000000000000000000000081526004018080602001828103825260148152602001807f6e6f742061206d616e6167656d656e74206b657900000000000000000000000081525060200191505060405180910390fd5b81600d60006101000a81548173ffffffffffffffffffffffffffffffffffffffff021916908373ffffffffffffffffffffffffffffffffffffffff16021790555060019050919050565b60035481565b60025481565b600c5481565b600061077f610892565b6000856000016000866000191660001916815260200190815260200160002060606040519081016040529081600082018054806020026020016040519081016040528092919081815260200182805480156107f957602002820191906000526020600020905b8154815260200190600101908083116107e5575b5050505050815260200160018201548152602001600282015460001916600019168152505091506000600102826040015160001916141561083d5760009250610889565b600090505b816000015151811015610888578382600001518281518110151561086257fe5b90602001906020020151141561087b5760019250610889565b8080600101915050610842565b5b50509392505050565b60606040519081016040528060608152602001600081526020016000801916815250905600a165627a7a72305820f1a0ce7f41b01b8c8412497a569ef079e449f13709d9d229e4cd70784528ff820029",
  "source": "pragma solidity ^0.4.24;\n\nimport \"../abstract/AMetaIdentityProxy.sol\";\n\n\n/**\n * @title MetaIdentityProxy\n * @dev Interface for MetaIdentityProxy\n */\ncontract MetaIdentityProxy is AMetaIdentityProxy {\n    // Line All the MetaIdentity variables up.\n    // For delegate call, contract storage layout must be same.\n    // Line up order is following the solidity inheritance logic(python like)\n\n    function implementation() public view returns (address) {\n        return REG.getContractAddress(\"MetaIdLibraryV1\");\n    }\n\n    function setRegistry(address _addr) public returns (bool) {\n        require(allKeys.find(bytes32(msg.sender), 1), \"not a management key\");\n        REG = IReg(_addr);\n        return true;\n    }\n\n    constructor(address _registry, address _managementKey) public {\n        bytes4 sig = bytes4(keccak256(\"init(address)\"));\n        REG = IReg(_registry);\n\n        // two 32bytes for call data\n        address target = implementation();\n        uint256 argsize = 32;\n        bool suc;\n\n        assembly {\n            // Add the signature first to memory\n            mstore(0x0, sig)\n            // Add the call data, which is at the end of the\n            // code\n            codecopy(0x4, sub(codesize, argsize), argsize)\n            // Delegate call to the library\n            suc := delegatecall(sub(gas, 10000), target, 0x0, add(argsize, 0x4), 0x0, 0x0)\n        }\n    }\n    \n    /**\n    * @dev Tells the type of proxy (EIP 897)\n    * @return Type of proxy, 2 for upgradeable proxy\n    */\n    function proxyType() public pure returns (uint256 proxyTypeId) {\n        return 2;\n    }\n\n    /**\n     * @dev Fallback function for delegate call. This function will return whatever the implementaion call returns\n     */\n    function () payable public {\n        address _impl = implementation();\n        require(_impl != address(0));\n\n        assembly {\n            let ptr := mload(0x40)\n            calldatacopy(ptr, 0, calldatasize)\n\n            let result := delegatecall(gas, _impl, ptr, calldatasize, 0, 0)\n            let size := returndatasize\n            returndatacopy(ptr, 0, size)\n\n            switch result\n            case 0 { revert(ptr, size) }\n            default { return(ptr, size) }\n        }\n    }\n}\n",
  "sourcePath": "/Users/hexoul/Documents/Metadium/metabolics/contracts/identity/MetaIdentityProxy.sol",
  "compiler": {
    "name": "solc",
    "version": "0.4.24+commit.e67f0147.Emscripten.clang"
  },
  "schemaVersion": "2.0.1",
  "updatedAt": "2019-03-19T07:21:36.524Z"
}