{
  "contractName": "MetaIdentityLib",
  "abi": [
    {
      "constant": true,
      "inputs": [
        {
          "name": "interfaceID",
          "type": "bytes4"
        }
      ],
      "name": "supportsInterface",
      "outputs": [
        {
          "name": "",
          "type": "bool"
        }
      ],
      "payable": false,
      "stateMutability": "view",
      "type": "function"
    },
    {
      "constant": true,
      "inputs": [],
      "name": "ERC165ID",
      "outputs": [
        {
          "name": "",
          "type": "bytes4"
        }
      ],
      "payable": false,
      "stateMutability": "pure",
      "type": "function"
    },
    {
      "constant": true,
      "inputs": [],
      "name": "REGISTRY_TOPIC",
      "outputs": [
        {
          "name": "",
          "type": "uint256"
        }
      ],
      "payable": false,
      "stateMutability": "view",
      "type": "function"
    },
    {
      "constant": true,
      "inputs": [],
      "name": "MANAGEMENT_KEY",
      "outputs": [
        {
          "name": "",
          "type": "uint256"
        }
      ],
      "payable": false,
      "stateMutability": "view",
      "type": "function"
    },
    {
      "constant": true,
      "inputs": [
        {
          "name": "_key",
          "type": "bytes32"
        }
      ],
      "name": "getKey",
      "outputs": [
        {
          "name": "purposes",
          "type": "uint256[]"
        },
        {
          "name": "keyType",
          "type": "uint256"
        },
        {
          "name": "key",
          "type": "bytes32"
        }
      ],
      "payable": false,
      "stateMutability": "view",
      "type": "function"
    },
    {
      "constant": true,
      "inputs": [
        {
          "name": "issuer",
          "type": "address"
        },
        {
          "name": "topic",
          "type": "uint256"
        }
      ],
      "name": "getClaimId",
      "outputs": [
        {
          "name": "",
          "type": "bytes32"
        }
      ],
      "payable": false,
      "stateMutability": "pure",
      "type": "function"
    },
    {
      "constant": true,
      "inputs": [],
      "name": "getNumClaims",
      "outputs": [
        {
          "name": "num",
          "type": "uint256"
        }
      ],
      "payable": false,
      "stateMutability": "view",
      "type": "function"
    },
    {
      "constant": true,
      "inputs": [
        {
          "name": "subject",
          "type": "address"
        },
        {
          "name": "topic",
          "type": "uint256"
        },
        {
          "name": "data",
          "type": "bytes"
        }
      ],
      "name": "claimToSign",
      "outputs": [
        {
          "name": "",
          "type": "bytes32"
        }
      ],
      "payable": false,
      "stateMutability": "pure",
      "type": "function"
    },
    {
      "constant": false,
      "inputs": [
        {
          "name": "_key",
          "type": "bytes32"
        },
        {
          "name": "_purpose",
          "type": "uint256"
        },
        {
          "name": "_keyType",
          "type": "uint256"
        }
      ],
      "name": "addKey",
      "outputs": [
        {
          "name": "success",
          "type": "bool"
        }
      ],
      "payable": false,
      "stateMutability": "nonpayable",
      "type": "function"
    },
    {
      "constant": true,
      "inputs": [
        {
          "name": "_claimId",
          "type": "bytes32"
        }
      ],
      "name": "isClaimExist",
      "outputs": [
        {
          "name": "",
          "type": "bool"
        }
      ],
      "payable": false,
      "stateMutability": "view",
      "type": "function"
    },
    {
      "constant": true,
      "inputs": [],
      "name": "CONTRACT_SCHEME",
      "outputs": [
        {
          "name": "",
          "type": "uint256"
        }
      ],
      "payable": false,
      "stateMutability": "view",
      "type": "function"
    },
    {
      "constant": true,
      "inputs": [
        {
          "name": "_topic",
          "type": "uint256"
        }
      ],
      "name": "getClaimIdsByType",
      "outputs": [
        {
          "name": "claimIds",
          "type": "bytes32[]"
        }
      ],
      "payable": false,
      "stateMutability": "view",
      "type": "function"
    },
    {
      "constant": true,
      "inputs": [],
      "name": "RSA_TYPE",
      "outputs": [
        {
          "name": "",
          "type": "uint256"
        }
      ],
      "payable": false,
      "stateMutability": "view",
      "type": "function"
    },
    {
      "constant": true,
      "inputs": [],
      "name": "getTransactionCount",
      "outputs": [
        {
          "name": "",
          "type": "uint256"
        }
      ],
      "payable": false,
      "stateMutability": "view",
      "type": "function"
    },
    {
      "constant": true,
      "inputs": [],
      "name": "actionThreshold",
      "outputs": [
        {
          "name": "",
          "type": "uint256"
        }
      ],
      "payable": false,
      "stateMutability": "view",
      "type": "function"
    },
    {
      "constant": true,
      "inputs": [
        {
          "name": "toSign",
          "type": "bytes32"
        },
        {
          "name": "signature",
          "type": "bytes"
        }
      ],
      "name": "getSignatureAddress",
      "outputs": [
        {
          "name": "",
          "type": "address"
        }
      ],
      "payable": false,
      "stateMutability": "pure",
      "type": "function"
    },
    {
      "constant": false,
      "inputs": [],
      "name": "unpause",
      "outputs": [],
      "payable": false,
      "stateMutability": "nonpayable",
      "type": "function"
    },
    {
      "constant": true,
      "inputs": [],
      "name": "ECDSA_TYPE",
      "outputs": [
        {
          "name": "",
          "type": "uint256"
        }
      ],
      "payable": false,
      "stateMutability": "view",
      "type": "function"
    },
    {
      "constant": false,
      "inputs": [
        {
          "name": "_to",
          "type": "address"
        },
        {
          "name": "_value",
          "type": "uint256"
        },
        {
          "name": "_data",
          "type": "bytes"
        },
        {
          "name": "_nonce",
          "type": "uint256"
        },
        {
          "name": "_sig",
          "type": "bytes"
        }
      ],
      "name": "delegatedExecute",
      "outputs": [
        {
          "name": "executionId",
          "type": "uint256"
        }
      ],
      "payable": false,
      "stateMutability": "nonpayable",
      "type": "function"
    },
    {
      "constant": false,
      "inputs": [
        {
          "name": "_claimId",
          "type": "bytes32"
        }
      ],
      "name": "removeClaim",
      "outputs": [
        {
          "name": "success",
          "type": "bool"
        }
      ],
      "payable": false,
      "stateMutability": "nonpayable",
      "type": "function"
    },
    {
      "constant": false,
      "inputs": [
        {
          "name": "_key",
          "type": "bytes32"
        },
        {
          "name": "_purpose",
          "type": "uint256"
        }
      ],
      "name": "removeKey",
      "outputs": [
        {
          "name": "success",
          "type": "bool"
        }
      ],
      "payable": false,
      "stateMutability": "nonpayable",
      "type": "function"
    },
    {
      "constant": true,
      "inputs": [],
      "name": "paused",
      "outputs": [
        {
          "name": "",
          "type": "bool"
        }
      ],
      "payable": false,
      "stateMutability": "view",
      "type": "function"
    },
    {
      "constant": false,
      "inputs": [
        {
          "name": "_claimId",
          "type": "bytes32"
        }
      ],
      "name": "refreshClaim",
      "outputs": [
        {
          "name": "",
          "type": "bool"
        }
      ],
      "payable": false,
      "stateMutability": "nonpayable",
      "type": "function"
    },
    {
      "constant": true,
      "inputs": [
        {
          "name": "",
          "type": "uint256"
        }
      ],
      "name": "execution",
      "outputs": [
        {
          "name": "to",
          "type": "address"
        },
        {
          "name": "value",
          "type": "uint256"
        },
        {
          "name": "data",
          "type": "bytes"
        },
        {
          "name": "needsApprove",
          "type": "uint256"
        }
      ],
      "payable": false,
      "stateMutability": "view",
      "type": "function"
    },
    {
      "constant": true,
      "inputs": [
        {
          "name": "addr",
          "type": "address"
        }
      ],
      "name": "addrToKey",
      "outputs": [
        {
          "name": "",
          "type": "bytes32"
        }
      ],
      "payable": false,
      "stateMutability": "pure",
      "type": "function"
    },
    {
      "constant": true,
      "inputs": [
        {
          "name": "",
          "type": "uint256"
        },
        {
          "name": "",
          "type": "uint256"
        }
      ],
      "name": "approved",
      "outputs": [
        {
          "name": "",
          "type": "address"
        }
      ],
      "payable": false,
      "stateMutability": "view",
      "type": "function"
    },
    {
      "constant": true,
      "inputs": [],
      "name": "METAID_TOPIC",
      "outputs": [
        {
          "name": "",
          "type": "uint256"
        }
      ],
      "payable": false,
      "stateMutability": "view",
      "type": "function"
    },
    {
      "constant": false,
      "inputs": [
        {
          "name": "_key",
          "type": "bytes32"
        },
        {
          "name": "_to",
          "type": "address"
        },
        {
          "name": "_func",
          "type": "bytes4"
        },
        {
          "name": "_executable",
          "type": "bool"
        }
      ],
      "name": "setFunc",
      "outputs": [
        {
          "name": "success",
          "type": "bool"
        }
      ],
      "payable": false,
      "stateMutability": "nonpayable",
      "type": "function"
    },
    {
      "constant": false,
      "inputs": [
        {
          "name": "_id",
          "type": "uint256"
        },
        {
          "name": "_approve",
          "type": "bool"
        }
      ],
      "name": "approve",
      "outputs": [
        {
          "name": "success",
          "type": "bool"
        }
      ],
      "payable": false,
      "stateMutability": "nonpayable",
      "type": "function"
    },
    {
      "constant": true,
      "inputs": [],
      "name": "ACTION_KEY",
      "outputs": [
        {
          "name": "",
          "type": "uint256"
        }
      ],
      "payable": false,
      "stateMutability": "view",
      "type": "function"
    },
    {
      "constant": true,
      "inputs": [
        {
          "name": "_key",
          "type": "bytes32"
        },
        {
          "name": "_to",
          "type": "address"
        },
        {
          "name": "_func",
          "type": "bytes4"
        }
      ],
      "name": "keyCanExecute",
      "outputs": [
        {
          "name": "executable",
          "type": "bool"
        }
      ],
      "payable": false,
      "stateMutability": "view",
      "type": "function"
    },
    {
      "constant": true,
      "inputs": [],
      "name": "ERC725ID",
      "outputs": [
        {
          "name": "",
          "type": "bytes4"
        }
      ],
      "payable": false,
      "stateMutability": "pure",
      "type": "function"
    },
    {
      "constant": true,
      "inputs": [],
      "name": "ECDSA_SCHEME",
      "outputs": [
        {
          "name": "",
          "type": "uint256"
        }
      ],
      "payable": false,
      "stateMutability": "view",
      "type": "function"
    },
    {
      "constant": false,
      "inputs": [],
      "name": "pause",
      "outputs": [],
      "payable": false,
      "stateMutability": "nonpayable",
      "type": "function"
    },
    {
      "constant": true,
      "inputs": [
        {
          "name": "_purpose",
          "type": "uint256"
        }
      ],
      "name": "getKeysByPurpose",
      "outputs": [
        {
          "name": "keys",
          "type": "bytes32[]"
        }
      ],
      "payable": false,
      "stateMutability": "view",
      "type": "function"
    },
    {
      "constant": true,
      "inputs": [],
      "name": "ENCRYPTION_KEY",
      "outputs": [
        {
          "name": "",
          "type": "uint256"
        }
      ],
      "payable": false,
      "stateMutability": "view",
      "type": "function"
    },
    {
      "constant": true,
      "inputs": [],
      "name": "RESIDENCE_TOPIC",
      "outputs": [
        {
          "name": "",
          "type": "uint256"
        }
      ],
      "payable": false,
      "stateMutability": "view",
      "type": "function"
    },
    {
      "constant": true,
      "inputs": [],
      "name": "managementThreshold",
      "outputs": [
        {
          "name": "",
          "type": "uint256"
        }
      ],
      "payable": false,
      "stateMutability": "view",
      "type": "function"
    },
    {
      "constant": true,
      "inputs": [],
      "name": "PROFILE_TOPIC",
      "outputs": [
        {
          "name": "",
          "type": "uint256"
        }
      ],
      "payable": false,
      "stateMutability": "view",
      "type": "function"
    },
    {
      "constant": true,
      "inputs": [],
      "name": "nonce",
      "outputs": [
        {
          "name": "",
          "type": "uint256"
        }
      ],
      "payable": false,
      "stateMutability": "view",
      "type": "function"
    },
    {
      "constant": true,
      "inputs": [],
      "name": "CUSTOM_KEY",
      "outputs": [
        {
          "name": "",
          "type": "uint256"
        }
      ],
      "payable": false,
      "stateMutability": "view",
      "type": "function"
    },
    {
      "constant": false,
      "inputs": [
        {
          "name": "_topic",
          "type": "uint256"
        },
        {
          "name": "_scheme",
          "type": "uint256"
        },
        {
          "name": "issuer",
          "type": "address"
        },
        {
          "name": "_signature",
          "type": "bytes"
        },
        {
          "name": "_data",
          "type": "bytes"
        },
        {
          "name": "_uri",
          "type": "string"
        }
      ],
      "name": "addClaim",
      "outputs": [
        {
          "name": "claimRequestId",
          "type": "uint256"
        }
      ],
      "payable": false,
      "stateMutability": "nonpayable",
      "type": "function"
    },
    {
      "constant": true,
      "inputs": [],
      "name": "LABEL_TOPIC",
      "outputs": [
        {
          "name": "",
          "type": "uint256"
        }
      ],
      "payable": false,
      "stateMutability": "view",
      "type": "function"
    },
    {
      "constant": false,
      "inputs": [
        {
          "name": "_to",
          "type": "address"
        },
        {
          "name": "_value",
          "type": "uint256"
        },
        {
          "name": "_data",
          "type": "bytes"
        }
      ],
      "name": "execute",
      "outputs": [
        {
          "name": "executionId",
          "type": "uint256"
        }
      ],
      "payable": false,
      "stateMutability": "nonpayable",
      "type": "function"
    },
    {
      "constant": true,
      "inputs": [],
      "name": "RESTORE_KEY",
      "outputs": [
        {
          "name": "",
          "type": "uint256"
        }
      ],
      "payable": false,
      "stateMutability": "view",
      "type": "function"
    },
    {
      "constant": true,
      "inputs": [],
      "name": "ERC735ID",
      "outputs": [
        {
          "name": "",
          "type": "bytes4"
        }
      ],
      "payable": false,
      "stateMutability": "pure",
      "type": "function"
    },
    {
      "constant": true,
      "inputs": [
        {
          "name": "b",
          "type": "bytes"
        }
      ],
      "name": "getFunctionSignature",
      "outputs": [
        {
          "name": "",
          "type": "bytes4"
        }
      ],
      "payable": false,
      "stateMutability": "pure",
      "type": "function"
    },
    {
      "constant": true,
      "inputs": [],
      "name": "CLAIM_SIGNER_KEY",
      "outputs": [
        {
          "name": "",
          "type": "uint256"
        }
      ],
      "payable": false,
      "stateMutability": "view",
      "type": "function"
    },
    {
      "constant": true,
      "inputs": [
        {
          "name": "_claimId",
          "type": "bytes32"
        }
      ],
      "name": "getClaim",
      "outputs": [
        {
          "name": "topic",
          "type": "uint256"
        },
        {
          "name": "scheme",
          "type": "uint256"
        },
        {
          "name": "issuer",
          "type": "address"
        },
        {
          "name": "signature",
          "type": "bytes"
        },
        {
          "name": "data",
          "type": "bytes"
        },
        {
          "name": "uri",
          "type": "string"
        }
      ],
      "payable": false,
      "stateMutability": "view",
      "type": "function"
    },
    {
      "constant": true,
      "inputs": [],
      "name": "numKeys",
      "outputs": [
        {
          "name": "",
          "type": "uint256"
        }
      ],
      "payable": false,
      "stateMutability": "view",
      "type": "function"
    },
    {
      "constant": false,
      "inputs": [
        {
          "name": "threshold",
          "type": "uint256"
        }
      ],
      "name": "changeManagementThreshold",
      "outputs": [],
      "payable": false,
      "stateMutability": "nonpayable",
      "type": "function"
    },
    {
      "constant": true,
      "inputs": [],
      "name": "getNonce",
      "outputs": [
        {
          "name": "",
          "type": "uint256"
        }
      ],
      "payable": false,
      "stateMutability": "view",
      "type": "function"
    },
    {
      "constant": true,
      "inputs": [
        {
          "name": "_key",
          "type": "bytes32"
        },
        {
          "name": "purpose",
          "type": "uint256"
        }
      ],
      "name": "keyHasPurpose",
      "outputs": [
        {
          "name": "exists",
          "type": "bool"
        }
      ],
      "payable": false,
      "stateMutability": "view",
      "type": "function"
    },
    {
      "constant": true,
      "inputs": [],
      "name": "ASSIST_KEY",
      "outputs": [
        {
          "name": "",
          "type": "uint256"
        }
      ],
      "payable": false,
      "stateMutability": "view",
      "type": "function"
    },
    {
      "constant": false,
      "inputs": [
        {
          "name": "_topic",
          "type": "uint256"
        },
        {
          "name": "_scheme",
          "type": "uint256"
        },
        {
          "name": "issuer",
          "type": "address"
        },
        {
          "name": "_signature",
          "type": "bytes"
        },
        {
          "name": "_data",
          "type": "bytes"
        },
        {
          "name": "_uri",
          "type": "string"
        },
        {
          "name": "_idSignature",
          "type": "bytes"
        }
      ],
      "name": "addClaimByProxy",
      "outputs": [
        {
          "name": "success",
          "type": "bool"
        }
      ],
      "payable": false,
      "stateMutability": "nonpayable",
      "type": "function"
    },
    {
      "constant": false,
      "inputs": [
        {
          "name": "_id",
          "type": "uint256"
        },
        {
          "name": "_approve",
          "type": "bool"
        },
        {
          "name": "_nonce",
          "type": "uint256"
        },
        {
          "name": "_sig",
          "type": "bytes"
        }
      ],
      "name": "delegatedApprove",
      "outputs": [
        {
          "name": "success",
          "type": "bool"
        }
      ],
      "payable": false,
      "stateMutability": "nonpayable",
      "type": "function"
    },
    {
      "constant": false,
      "inputs": [
        {
          "name": "threshold",
          "type": "uint256"
        }
      ],
      "name": "changeActionThreshold",
      "outputs": [],
      "payable": false,
      "stateMutability": "nonpayable",
      "type": "function"
    },
    {
      "constant": true,
      "inputs": [],
      "name": "DELEGATE_KEY",
      "outputs": [
        {
          "name": "",
          "type": "uint256"
        }
      ],
      "payable": false,
      "stateMutability": "view",
      "type": "function"
    },
    {
      "constant": true,
      "inputs": [],
      "name": "RSA_SCHEME",
      "outputs": [
        {
          "name": "",
          "type": "uint256"
        }
      ],
      "payable": false,
      "stateMutability": "view",
      "type": "function"
    },
    {
      "constant": false,
      "inputs": [
        {
          "name": "_recipient",
          "type": "address"
        }
      ],
      "name": "destroyAndSend",
      "outputs": [],
      "payable": false,
      "stateMutability": "nonpayable",
      "type": "function"
    },
    {
      "constant": true,
      "inputs": [
        {
          "name": "self",
          "type": "address"
        },
        {
          "name": "_to",
          "type": "address"
        },
        {
          "name": "_value",
          "type": "uint256"
        },
        {
          "name": "_data",
          "type": "bytes"
        },
        {
          "name": "_nonce",
          "type": "uint256"
        }
      ],
      "name": "getExecutionId",
      "outputs": [
        {
          "name": "",
          "type": "uint256"
        }
      ],
      "payable": false,
      "stateMutability": "pure",
      "type": "function"
    },
    {
      "constant": true,
      "inputs": [],
      "name": "numClaims",
      "outputs": [
        {
          "name": "",
          "type": "uint256"
        }
      ],
      "payable": false,
      "stateMutability": "view",
      "type": "function"
    },
    {
      "anonymous": false,
      "inputs": [
        {
          "indexed": true,
          "name": "claimRequestId",
          "type": "uint256"
        },
        {
          "indexed": true,
          "name": "topic",
          "type": "uint256"
        },
        {
          "indexed": false,
          "name": "scheme",
          "type": "uint256"
        },
        {
          "indexed": true,
          "name": "issuer",
          "type": "address"
        },
        {
          "indexed": false,
          "name": "signature",
          "type": "bytes"
        },
        {
          "indexed": false,
          "name": "data",
          "type": "bytes"
        },
        {
          "indexed": false,
          "name": "uri",
          "type": "string"
        }
      ],
      "name": "ClaimRequested",
      "type": "event"
    },
    {
      "anonymous": false,
      "inputs": [
        {
          "indexed": true,
          "name": "claimId",
          "type": "bytes32"
        },
        {
          "indexed": true,
          "name": "topic",
          "type": "uint256"
        },
        {
          "indexed": false,
          "name": "scheme",
          "type": "uint256"
        },
        {
          "indexed": true,
          "name": "issuer",
          "type": "address"
        },
        {
          "indexed": false,
          "name": "signature",
          "type": "bytes"
        },
        {
          "indexed": false,
          "name": "data",
          "type": "bytes"
        },
        {
          "indexed": false,
          "name": "uri",
          "type": "string"
        }
      ],
      "name": "ClaimAdded",
      "type": "event"
    },
    {
      "anonymous": false,
      "inputs": [
        {
          "indexed": true,
          "name": "claimId",
          "type": "bytes32"
        },
        {
          "indexed": true,
          "name": "topic",
          "type": "uint256"
        },
        {
          "indexed": false,
          "name": "scheme",
          "type": "uint256"
        },
        {
          "indexed": true,
          "name": "issuer",
          "type": "address"
        },
        {
          "indexed": false,
          "name": "signature",
          "type": "bytes"
        },
        {
          "indexed": false,
          "name": "data",
          "type": "bytes"
        },
        {
          "indexed": false,
          "name": "uri",
          "type": "string"
        }
      ],
      "name": "ClaimRemoved",
      "type": "event"
    },
    {
      "anonymous": false,
      "inputs": [
        {
          "indexed": true,
          "name": "claimId",
          "type": "bytes32"
        },
        {
          "indexed": true,
          "name": "topic",
          "type": "uint256"
        },
        {
          "indexed": false,
          "name": "scheme",
          "type": "uint256"
        },
        {
          "indexed": true,
          "name": "issuer",
          "type": "address"
        },
        {
          "indexed": false,
          "name": "signature",
          "type": "bytes"
        },
        {
          "indexed": false,
          "name": "data",
          "type": "bytes"
        },
        {
          "indexed": false,
          "name": "uri",
          "type": "string"
        }
      ],
      "name": "ClaimChanged",
      "type": "event"
    },
    {
      "anonymous": false,
      "inputs": [
        {
          "indexed": true,
          "name": "key",
          "type": "bytes32"
        },
        {
          "indexed": true,
          "name": "purpose",
          "type": "uint256"
        },
        {
          "indexed": true,
          "name": "keyType",
          "type": "uint256"
        }
      ],
      "name": "KeyAdded",
      "type": "event"
    },
    {
      "anonymous": false,
      "inputs": [
        {
          "indexed": true,
          "name": "key",
          "type": "bytes32"
        },
        {
          "indexed": true,
          "name": "purpose",
          "type": "uint256"
        },
        {
          "indexed": true,
          "name": "keyType",
          "type": "uint256"
        }
      ],
      "name": "KeyRemoved",
      "type": "event"
    },
    {
      "anonymous": false,
      "inputs": [
        {
          "indexed": true,
          "name": "executionId",
          "type": "uint256"
        },
        {
          "indexed": true,
          "name": "to",
          "type": "address"
        },
        {
          "indexed": true,
          "name": "value",
          "type": "uint256"
        },
        {
          "indexed": false,
          "name": "data",
          "type": "bytes"
        }
      ],
      "name": "ExecutionRequested",
      "type": "event"
    },
    {
      "anonymous": false,
      "inputs": [
        {
          "indexed": true,
          "name": "executionId",
          "type": "uint256"
        },
        {
          "indexed": true,
          "name": "to",
          "type": "address"
        },
        {
          "indexed": true,
          "name": "value",
          "type": "uint256"
        },
        {
          "indexed": false,
          "name": "data",
          "type": "bytes"
        }
      ],
      "name": "Executed",
      "type": "event"
    },
    {
      "anonymous": false,
      "inputs": [
        {
          "indexed": true,
          "name": "executionId",
          "type": "uint256"
        },
        {
          "indexed": false,
          "name": "approved",
          "type": "bool"
        }
      ],
      "name": "Approved",
      "type": "event"
    },
    {
      "anonymous": false,
      "inputs": [
        {
          "indexed": true,
          "name": "executionId",
          "type": "uint256"
        },
        {
          "indexed": true,
          "name": "to",
          "type": "address"
        },
        {
          "indexed": true,
          "name": "value",
          "type": "uint256"
        },
        {
          "indexed": false,
          "name": "data",
          "type": "bytes"
        }
      ],
      "name": "ExecutionFailed",
      "type": "event"
    },
    {
      "anonymous": false,
      "inputs": [],
      "name": "LogPause",
      "type": "event"
    },
    {
      "anonymous": false,
      "inputs": [],
      "name": "LogUnpause",
      "type": "event"
    },
    {
      "constant": false,
      "inputs": [
        {
          "name": "_managementKey",
          "type": "address"
        }
      ],
      "name": "init",
      "outputs": [],
      "payable": false,
      "stateMutability": "nonpayable",
      "type": "function"
    }
  ],
  "bytecode": "0x6080604052600160035560016004556001600e556001600f556000601360006101000a81548160ff021916908315150217905550600160155560016014600062000057620001c4640100000000026401000000009004565b7bffffffffffffffffffffffffffffffffffffffffffffffffffffffff19167bffffffffffffffffffffffffffffffffffffffffffffffffffffffff1916815260200190815260200160002060006101000a81548160ff021916908315150217905550600160146000620000d9620001ef640100000000026401000000009004565b7bffffffffffffffffffffffffffffffffffffffffffffffffffffffff19167bffffffffffffffffffffffffffffffffffffffffffffffffffffffff1916815260200190815260200160002060006101000a81548160ff0219169083151502179055506001601460006200015b620002f8640100000000026401000000009004565b7bffffffffffffffffffffffffffffffffffffffffffffffffffffffff19167bffffffffffffffffffffffffffffffffffffffffffffffffffffffff1916815260200190815260200160002060006101000a81548160ff02191690831515021790555062000392565b60006301ffc9a77c010000000000000000000000000000000000000000000000000000000002905090565b60006353d413c57c01000000000000000000000000000000000000000000000000000000000263747442d37c01000000000000000000000000000000000000000000000000000000000263b61d27f67c010000000000000000000000000000000000000000000000000000000002631d3812407c010000000000000000000000000000000000000000000000000000000002639010f7267c01000000000000000000000000000000000000000000000000000000000263d202158d7c0100000000000000000000000000000000000000000000000000000000026312aaac707c010000000000000000000000000000000000000000000000000000000002181818181818905090565b6000634eee424a7c01000000000000000000000000000000000000000000000000000000000263b1a34e0d7c01000000000000000000000000000000000000000000000000000000000263262b54f57c01000000000000000000000000000000000000000000000000000000000263c9100bcb7c010000000000000000000000000000000000000000000000000000000002181818905090565b616b3280620003a26000396000f3006080604052600436106102eb576000357c0100000000000000000000000000000000000000000000000000000000900463ffffffff16806301ffc9a7146102f057806302e7491e146103545780630440b43a146103bd578063058b316c146103e857806312aaac7014610413578063190db862146104af578063199029861461051857806319ab453c146105435780631d203be8146105865780631d38124014610635578063237434f014610692578063251de3e9146106db578063262b54f5146107065780632d32d442146107885780632e7700f0146107b357806338f4edd4146107de5780633b8a12c8146108095780633f4ba83a146108c057806349991ec8146108d75780634da34c2c146109025780634eee424a146109f957806353d413c514610a425780635c975abb14610a955780635d7bc3fc14610ac45780635dccebba14610b0d57806363f14c3c14610bf45780636e4c431114610c53578063710ca55014610cca578063724a4b3b14610cf5578063747442d314610d9357806375e5598c14610de4578063765b304214610e0f5780637d96fa5814610ea157806382d0944614610f0a5780638456cb5914610f355780639010f72614610f4c5780639e140cc814610fce578063a550f0c714610ff9578063aa0a514214611024578063ae6283861461104f578063affed0e01461107a578063b132734e146110a5578063b1a34e0d146110d0578063b1e9f64c1461120d578063b61d27f614611238578063b9133d63146112df578063bf2f20ad1461130a578063c32b351814611373578063c67021871461142e578063c9100bcb14611459578063c9d24ecc1461161c578063ccfe586814611647578063d087d28814611674578063d202158d1461169f578063dbfa74b7146116f2578063e0610ba31461171d578063e804c01b146118a4578063e99896b814611945578063ead09fab14611972578063f22d08a61461199d578063f5074f41146119c8578063f744413714611a0b578063fc0fc84914611adc575b600080fd5b3480156102fc57600080fd5b5061033a60048036038101908080357bffffffffffffffffffffffffffffffffffffffffffffffffffffffff19169060200190929190505050611b07565b604051808215151515815260200191505060405180910390f35b34801561036057600080fd5b50610369611b6f565b60405180827bffffffffffffffffffffffffffffffffffffffffffffffffffffffff19167bffffffffffffffffffffffffffffffffffffffffffffffffffffffff1916815260200191505060405180910390f35b3480156103c957600080fd5b506103d2611b9a565b6040518082815260200191505060405180910390f35b3480156103f457600080fd5b506103fd611b9f565b6040518082815260200191505060405180910390f35b34801561041f57600080fd5b506104426004803603810190808035600019169060200190929190505050611ba4565b60405180806020018481526020018360001916600019168152602001828103825285818151815260200191508051906020019060200280838360005b8381101561049957808201518184015260208101905061047e565b5050505090500194505050505060405180910390f35b3480156104bb57600080fd5b506104fa600480360381019080803573ffffffffffffffffffffffffffffffffffffffff16906020019092919080359060200190929190505050611c6e565b60405180826000191660001916815260200191505060405180910390f35b34801561052457600080fd5b5061052d611d3d565b6040518082815260200191505060405180910390f35b34801561054f57600080fd5b50610584600480360381019080803573ffffffffffffffffffffffffffffffffffffffff169060200190929190505050611d47565b005b34801561059257600080fd5b50610617600480360381019080803573ffffffffffffffffffffffffffffffffffffffff16906020019092919080359060200190929190803590602001908201803590602001908080601f0160208091040260200160405190810160405280939291908181526020018383808284378201915050505050509192919290505050611e8a565b60405180826000191660001916815260200191505060405180910390f35b34801561064157600080fd5b5061067860048036038101908080356000191690602001909291908035906020019092919080359060200190929190505050611faf565b604051808215151515815260200191505060405180910390f35b34801561069e57600080fd5b506106c1600480360381019080803560001916906020019092919050505061201b565b604051808215151515815260200191505060405180910390f35b3480156106e757600080fd5b506106f0612092565b6040518082815260200191505060405180910390f35b34801561071257600080fd5b5061073160048036038101908080359060200190929190505050612097565b6040518080602001828103825283818151815260200191508051906020019060200280838360005b83811015610774578082015181840152602081019050610759565b505050509050019250505060405180910390f35b34801561079457600080fd5b5061079d612106565b6040518082815260200191505060405180910390f35b3480156107bf57600080fd5b506107c861210b565b6040518082815260200191505060405180910390f35b3480156107ea57600080fd5b506107f3612115565b6040518082815260200191505060405180910390f35b34801561081557600080fd5b5061087e6004803603810190808035600019169060200190929190803590602001908201803590602001908080601f016020809104026020016040519081016040528093929190818152602001838380828437820191505050505050919291929050505061211b565b604051808273ffffffffffffffffffffffffffffffffffffffff1673ffffffffffffffffffffffffffffffffffffffff16815260200191505060405180910390f35b3480156108cc57600080fd5b506108d561224f565b005b3480156108e357600080fd5b506108ec6122c6565b6040518082815260200191505060405180910390f35b34801561090e57600080fd5b506109e3600480360381019080803573ffffffffffffffffffffffffffffffffffffffff16906020019092919080359060200190929190803590602001908201803590602001908080601f016020809104026020016040519081016040528093929190818152602001838380828437820191505050505050919291929080359060200190929190803590602001908201803590602001908080601f01602080910402602001604051908101604052809392919081815260200183838082843782019150505050505091929192905050506122cb565b6040518082815260200191505060405180910390f35b348015610a0557600080fd5b50610a2860048036038101908080356000191690602001909291905050506124a8565b604051808215151515815260200191505060405180910390f35b348015610a4e57600080fd5b50610a7b600480360381019080803560001916906020019092919080359060200190929190505050612c83565b604051808215151515815260200191505060405180910390f35b348015610aa157600080fd5b50610aaa612d5f565b604051808215151515815260200191505060405180910390f35b348015610ad057600080fd5b50610af36004803603810190808035600019169060200190929190505050612d72565b604051808215151515815260200191505060405180910390f35b348015610b1957600080fd5b50610b386004803603810190808035906020019092919050505061325c565b604051808573ffffffffffffffffffffffffffffffffffffffff1673ffffffffffffffffffffffffffffffffffffffff16815260200184815260200180602001838152602001828103825284818151815260200191508051906020019080838360005b83811015610bb6578082015181840152602081019050610b9b565b50505050905090810190601f168015610be35780820380516001836020036101000a031916815260200191505b509550505050505060405180910390f35b348015610c0057600080fd5b50610c35600480360381019080803573ffffffffffffffffffffffffffffffffffffffff169060200190929190505050613344565b60405180826000191660001916815260200191505060405180910390f35b348015610c5f57600080fd5b50610c886004803603810190808035906020019092919080359060200190929190505050613367565b604051808273ffffffffffffffffffffffffffffffffffffffff1673ffffffffffffffffffffffffffffffffffffffff16815260200191505060405180910390f35b348015610cd657600080fd5b50610cdf6133b4565b6040518082815260200191505060405180910390f35b348015610d0157600080fd5b50610d796004803603810190808035600019169060200190929190803573ffffffffffffffffffffffffffffffffffffffff16906020019092919080357bffffffffffffffffffffffffffffffffffffffffffffffffffffffff191690602001909291908035151590602001909291905050506133b9565b604051808215151515815260200191505060405180910390f35b348015610d9f57600080fd5b50610dca60048036038101908080359060200190929190803515159060200190929190505050613430565b604051808215151515815260200191505060405180910390f35b348015610df057600080fd5b50610df9613461565b6040518082815260200191505060405180910390f35b348015610e1b57600080fd5b50610e876004803603810190808035600019169060200190929190803573ffffffffffffffffffffffffffffffffffffffff16906020019092919080357bffffffffffffffffffffffffffffffffffffffffffffffffffffffff19169060200190929190505050613466565b604051808215151515815260200191505060405180910390f35b348015610ead57600080fd5b50610eb661352c565b60405180827bffffffffffffffffffffffffffffffffffffffffffffffffffffffff19167bffffffffffffffffffffffffffffffffffffffffffffffffffffffff1916815260200191505060405180910390f35b348015610f1657600080fd5b50610f1f613635565b6040518082815260200191505060405180910390f35b348015610f4157600080fd5b50610f4a61363a565b005b348015610f5857600080fd5b50610f77600480360381019080803590602001909291905050506136b2565b6040518080602001828103825283818151815260200191508051906020019060200280838360005b83811015610fba578082015181840152602081019050610f9f565b505050509050019250505060405180910390f35b348015610fda57600080fd5b50610fe3613724565b6040518082815260200191505060405180910390f35b34801561100557600080fd5b5061100e613729565b6040518082815260200191505060405180910390f35b34801561103057600080fd5b5061103961372e565b6040518082815260200191505060405180910390f35b34801561105b57600080fd5b50611064613734565b6040518082815260200191505060405180910390f35b34801561108657600080fd5b5061108f613739565b6040518082815260200191505060405180910390f35b3480156110b157600080fd5b506110ba61373f565b6040518082815260200191505060405180910390f35b3480156110dc57600080fd5b506111f76004803603810190808035906020019092919080359060200190929190803573ffffffffffffffffffffffffffffffffffffffff169060200190929190803590602001908201803590602001908080601f0160208091040260200160405190810160405280939291908181526020018383808284378201915050505050509192919290803590602001908201803590602001908080601f0160208091040260200160405190810160405280939291908181526020018383808284378201915050505050509192919290803590602001908201803590602001908080601f0160208091040260200160405190810160405280939291908181526020018383808284378201915050505050509192919290505050613744565b6040518082815260200191505060405180910390f35b34801561121957600080fd5b50611222613cdc565b6040518082815260200191505060405180910390f35b34801561124457600080fd5b506112c9600480360381019080803573ffffffffffffffffffffffffffffffffffffffff16906020019092919080359060200190929190803590602001908201803590602001908080601f0160208091040260200160405190810160405280939291908181526020018383808284378201915050505050509192919290505050613ce1565b6040518082815260200191505060405180910390f35b3480156112eb57600080fd5b506112f4613d14565b6040518082815260200191505060405180910390f35b34801561131657600080fd5b5061131f613d19565b60405180827bffffffffffffffffffffffffffffffffffffffffffffffffffffffff19167bffffffffffffffffffffffffffffffffffffffffffffffffffffffff1916815260200191505060405180910390f35b34801561137f57600080fd5b506113da600480360381019080803590602001908201803590602001908080601f0160208091040260200160405190810160405280939291908181526020018383808284378201915050505050509192919290505050613db3565b60405180827bffffffffffffffffffffffffffffffffffffffffffffffffffffffff19167bffffffffffffffffffffffffffffffffffffffffffffffffffffffff1916815260200191505060405180910390f35b34801561143a57600080fd5b50611443613ea9565b6040518082815260200191505060405180910390f35b34801561146557600080fd5b506114886004803603810190808035600019169060200190929190505050613eae565b604051808781526020018681526020018573ffffffffffffffffffffffffffffffffffffffff1673ffffffffffffffffffffffffffffffffffffffff168152602001806020018060200180602001848103845287818151815260200191508051906020019080838360005b8381101561150e5780820151818401526020810190506114f3565b50505050905090810190601f16801561153b5780820380516001836020036101000a031916815260200191505b50848103835286818151815260200191508051906020019080838360005b83811015611574578082015181840152602081019050611559565b50505050905090810190601f1680156115a15780820380516001836020036101000a031916815260200191505b50848103825285818151815260200191508051906020019080838360005b838110156115da5780820151818401526020810190506115bf565b50505050905090810190601f1680156116075780820380516001836020036101000a031916815260200191505b50995050505050505050505060405180910390f35b34801561162857600080fd5b506116316141ad565b6040518082815260200191505060405180910390f35b34801561165357600080fd5b50611672600480360381019080803590602001909291905050506141ba565b005b34801561168057600080fd5b50611689614221565b6040518082815260200191505060405180910390f35b3480156116ab57600080fd5b506116d860048036038101908080356000191690602001909291908035906020019092919050505061422b565b604051808215151515815260200191505060405180910390f35b3480156116fe57600080fd5b5061170761424b565b6040518082815260200191505060405180910390f35b34801561172957600080fd5b5061188a6004803603810190808035906020019092919080359060200190929190803573ffffffffffffffffffffffffffffffffffffffff169060200190929190803590602001908201803590602001908080601f0160208091040260200160405190810160405280939291908181526020018383808284378201915050505050509192919290803590602001908201803590602001908080601f0160208091040260200160405190810160405280939291908181526020018383808284378201915050505050509192919290803590602001908201803590602001908080601f0160208091040260200160405190810160405280939291908181526020018383808284378201915050505050509192919290803590602001908201803590602001908080601f0160208091040260200160405190810160405280939291908181526020018383808284378201915050505050509192919290505050614250565b604051808215151515815260200191505060405180910390f35b3480156118b057600080fd5b5061192b6004803603810190808035906020019092919080351515906020019092919080359060200190929190803590602001908201803590602001908080601f016020809104026020016040519081016040528093929190818152602001838380828437820191505050505050919291929050505061473d565b604051808215151515815260200191505060405180910390f35b34801561195157600080fd5b50611970600480360381019080803590602001909291905050506148ae565b005b34801561197e57600080fd5b50611987614915565b6040518082815260200191505060405180910390f35b3480156119a957600080fd5b506119b261491a565b6040518082815260200191505060405180910390f35b3480156119d457600080fd5b50611a09600480360381019080803573ffffffffffffffffffffffffffffffffffffffff16906020019092919050505061491f565b005b348015611a1757600080fd5b50611ac6600480360381019080803573ffffffffffffffffffffffffffffffffffffffff169060200190929190803573ffffffffffffffffffffffffffffffffffffffff16906020019092919080359060200190929190803590602001908201803590602001908080601f016020809104026020016040519081016040528093929190818152602001838380828437820191505050505050919291929080359060200190929190505050614987565b6040518082815260200191505060405180910390f35b348015611ae857600080fd5b50611af1614afd565b6040518082815260200191505060405180910390f35b600060146000837bffffffffffffffffffffffffffffffffffffffffffffffffffffffff19167bffffffffffffffffffffffffffffffffffffffffffffffffffffffff1916815260200190815260200160002060009054906101000a900460ff169050919050565b60006301ffc9a77c010000000000000000000000000000000000000000000000000000000002905090565b600381565b600181565b6060600080611bb16166b5565b6010600001600086600019166000191681526020019081526020016000206060604051908101604052908160008201805480602002602001604051908101604052809291908181526020018280548015611c2a57602002820191906000526020600020905b815481526020019060010190808311611c16575b505050505081526020016001820154815260200160028201546000191660001916815250509050806000015193508060200151925080604001519150509193909250565b60008282604051602001808373ffffffffffffffffffffffffffffffffffffffff1673ffffffffffffffffffffffffffffffffffffffff166c01000000000000000000000000028152601401828152602001925050506040516020818303038152906040526040518082805190602001908083835b602083101515611d085780518252602082019150602081019050602083039250611ce3565b6001836020036101000a0380198251168184511680821785525050505050509050019150506040518091039020905092915050565b6000601a54905090565b6000611d5282613344565b90506000611d6060016136b2565b51141515611dd6576040517f08c379a00000000000000000000000000000000000000000000000000000000081526004018080602001828103825260118152602001807f416c726561647920696e6974696174656400000000000000000000000000000081525060200191505060405180910390fd5b611de281600180614b03565b611def8160026001614b03565b611dfc8160036001614b03565b6001600e819055506001600f81905550600160146000611e1a613d19565b611e2261352c565b187bffffffffffffffffffffffffffffffffffffffffffffffffffffffff19167bffffffffffffffffffffffffffffffffffffffffffffffffffffffff1916815260200190815260200160002060006101000a81548160ff0219169083151502179055505050565b6000838383604051602001808473ffffffffffffffffffffffffffffffffffffffff1673ffffffffffffffffffffffffffffffffffffffff166c0100000000000000000000000002815260140183815260200182805190602001908083835b602083101515611f0e5780518252602082019150602081019050602083039250611ee9565b6001836020036101000a03801982511681845116808217855250505050505090500193505050506040516020818303038152906040526040518082805190602001908083835b602083101515611f795780518252602082019150602081019050602083039250611f54565b6001836020036101000a038019825116818451168082178552505050505050905001915050604051809103902090509392505050565b6000611fb9614b53565b1515611fc457600080fd5b601360009054906101000a900460ff16151515611fe057600080fd5b611ff684846010614bc89092919063ffffffff16565b156120045760009050612014565b61200f848484614b03565b600190505b9392505050565b60008073ffffffffffffffffffffffffffffffffffffffff1660186000846000191660001916815260200190815260200160002060020160009054906101000a900473ffffffffffffffffffffffffffffffffffffffff1673ffffffffffffffffffffffffffffffffffffffff1614159050919050565b600381565b6060601960008381526020019081526020016000208054806020026020016040519081016040528092919081815260200182805480156120fa57602002820191906000526020600020905b815460001916815260200190600101908083116120e2575b50505050509050919050565b600281565b6000601554905090565b600f5481565b6000612247826040805190810160405280601c81526020017f19457468657265756d205369676e6564204d6573736167653a0a333200000000815250856040516020018083805190602001908083835b602083101515612190578051825260208201915060208101905060208303925061216b565b6001836020036101000a0380198251168184511680821785525050505050509050018260001916600019168152602001925050506040516020818303038152906040526040518082805190602001908083835b60208310151561220857805182526020820191506020810190506020830392506121e3565b6001836020036101000a038019825116818451168082178552505050505050905001915050604051809103902060001916614ce590919063ffffffff16565b905092915050565b612257614b53565b151561226257600080fd5b601360009054906101000a900460ff16151561227d57600080fd5b6000601360006101000a81548160ff0219169083151502179055507f730c1faaa977b67dacf1e2451ef54556e04a07d577785ff79f6d31f73502efc960405160405180910390a1565b600181565b600080601360009054906101000a900460ff161515156122ea57600080fd5b60155484141515612363576040517f08c379a000000000000000000000000000000000000000000000000000000000815260040180806020018281038252600e8152602001807f6e6f6e6365206d69736d6174636800000000000000000000000000000000000081525060200191505060405180910390fd5b61248e87878787604051602001808573ffffffffffffffffffffffffffffffffffffffff1673ffffffffffffffffffffffffffffffffffffffff166c0100000000000000000000000002815260140184815260200183805190602001908083835b6020831015156123e957805182526020820191506020810190506020830392506123c4565b6001836020036101000a0380198251168184511680821785525050505050509050018281526020019450505050506040516020818303038152906040526040518082805190602001908083835b60208310151561245b5780518252602082019150602081019050602083039250612436565b6001836020036101000a03801982511681845116808217855250505050505090500191505060405180910390208461211b565b905061249c81888888614ddd565b91505095945050505050565b60006124b26166da565b600080601360009054906101000a900460ff161515156124d157600080fd5b84600060186000836000191660001916815260200190815260200160002060020160009054906101000a900473ffffffffffffffffffffffffffffffffffffffff16905060008173ffffffffffffffffffffffffffffffffffffffff161415151561253b57600080fd5b612543614b53565b1561254d57612695565b8073ffffffffffffffffffffffffffffffffffffffff163373ffffffffffffffffffffffffffffffffffffffff16141561258657612694565b6125b661259161352c565b8273ffffffffffffffffffffffffffffffffffffffff1661503690919063ffffffff16565b1561268e578073ffffffffffffffffffffffffffffffffffffffff1663d202158d6125e033613344565b60026040518363ffffffff167c010000000000000000000000000000000000000000000000000000000002815260040180836000191660001916815260200182815260200192505050602060405180830381600087803b15801561264357600080fd5b505af1158015612657573d6000803e3d6000fd5b505050506040513d602081101561266d57600080fd5b8101908080519060200190929190505050151561268957600080fd5b612693565b600080fd5b5b5b60186000886000191660001916815260200190815260200160002060c0604051908101604052908160008201548152602001600182015481526020016002820160009054906101000a900473ffffffffffffffffffffffffffffffffffffffff1673ffffffffffffffffffffffffffffffffffffffff1673ffffffffffffffffffffffffffffffffffffffff168152602001600382018054600181600116156101000203166002900480601f0160208091040260200160405190810160405280929190818152602001828054600181600116156101000203166002900480156127bf5780601f10612794576101008083540402835291602001916127bf565b820191906000526020600020905b8154815290600101906020018083116127a257829003601f168201915b50505050508152602001600482018054600181600116156101000203166002900480601f0160208091040260200160405190810160405280929190818152602001828054600181600116156101000203166002900480156128615780601f1061283657610100808354040283529160200191612861565b820191906000526020600020905b81548152906001019060200180831161284457829003601f168201915b50505050508152602001600582018054600181600116156101000203166002900480601f0160208091040260200160405190810160405280929190818152602001828054600181600116156101000203166002900480156129035780601f106128d857610100808354040283529160200191612903565b820191906000526020600020905b8154815290600101906020018083116128e657829003601f168201915b5050505050815250509450600073ffffffffffffffffffffffffffffffffffffffff16856040015173ffffffffffffffffffffffffffffffffffffffff161415151561294e57600080fd5b60186000886000191660001916815260200190815260200160002060008082016000905560018201600090556002820160006101000a81549073ffffffffffffffffffffffffffffffffffffffff02191690556003820160006129b19190616727565b6004820160006129c19190616727565b6005820160006129d1919061676f565b505060196000866000015181526020019081526020016000209350600092505b8380549050831015612aaf5786600019168484815481101515612a1057fe5b9060005260206000200154600019161415612aa257836001858054905003815481101515612a3a57fe5b90600052602060002001548484815481101515612a5357fe5b906000526020600020018160001916905550836001858054905003815481101515612a7a57fe5b906000526020600020016000905583805480919060019003612a9c91906167b7565b50612aaf565b82806001019350506129f1565b601a6000815480929190600190039190505550846040015173ffffffffffffffffffffffffffffffffffffffff16856000015188600019167f3cf57863a89432c61c4a27073c6ee39e8a764bff5a05aebfbcdcdc80b2e6130a886020015189606001518a608001518b60a0015160405180858152602001806020018060200180602001848103845287818151815260200191508051906020019080838360005b83811015612b6a578082015181840152602081019050612b4f565b50505050905090810190601f168015612b975780820380516001836020036101000a031916815260200191505b50848103835286818151815260200191508051906020019080838360005b83811015612bd0578082015181840152602081019050612bb5565b50505050905090810190601f168015612bfd5780820380516001836020036101000a031916815260200191505b50848103825285818151815260200191508051906020019080838360005b83811015612c36578082015181840152602081019050612c1b565b50505050905090810190601f168015612c635780820380516001836020036101000a031916815260200191505b5097505050505050505060405180910390a4600195505050505050919050565b600080612c8e614b53565b1515612c9957600080fd5b601360009054906101000a900460ff16151515612cb557600080fd5b6001831415612ce357612cd36001601061511d90919063ffffffff16565b600e54101515612ce257600080fd5b5b612cf984846010614bc89092919063ffffffff16565b1515612d085760009150612d58565b612d1e848460106151409092919063ffffffff16565b9050808385600019167f585a4aef50f8267a92b32412b331b20f7f8b96f2245b253b9cc50dcc621d339760405160405180910390a4600191505b5092915050565b601360009054906101000a900460ff1681565b6000612d7c6166da565b601360009054906101000a900460ff16151515612d9857600080fd5b82600060186000836000191660001916815260200190815260200160002060020160009054906101000a900473ffffffffffffffffffffffffffffffffffffffff16905060008173ffffffffffffffffffffffffffffffffffffffff1614151515612e0257600080fd5b612e0a614b53565b15612e1457612f5c565b8073ffffffffffffffffffffffffffffffffffffffff163373ffffffffffffffffffffffffffffffffffffffff161415612e4d57612f5b565b612e7d612e5861352c565b8273ffffffffffffffffffffffffffffffffffffffff1661503690919063ffffffff16565b15612f55578073ffffffffffffffffffffffffffffffffffffffff1663d202158d612ea733613344565b60026040518363ffffffff167c010000000000000000000000000000000000000000000000000000000002815260040180836000191660001916815260200182815260200192505050602060405180830381600087803b158015612f0a57600080fd5b505af1158015612f1e573d6000803e3d6000fd5b505050506040513d6020811015612f3457600080fd5b81019080805190602001909291905050501515612f5057600080fd5b612f5a565b600080fd5b5b5b60186000866000191660001916815260200190815260200160002060c0604051908101604052908160008201548152602001600182015481526020016002820160009054906101000a900473ffffffffffffffffffffffffffffffffffffffff1673ffffffffffffffffffffffffffffffffffffffff1673ffffffffffffffffffffffffffffffffffffffff168152602001600382018054600181600116156101000203166002900480601f0160208091040260200160405190810160405280929190818152602001828054600181600116156101000203166002900480156130865780601f1061305b57610100808354040283529160200191613086565b820191906000526020600020905b81548152906001019060200180831161306957829003601f168201915b50505050508152602001600482018054600181600116156101000203166002900480601f0160208091040260200160405190810160405280929190818152602001828054600181600116156101000203166002900480156131285780601f106130fd57610100808354040283529160200191613128565b820191906000526020600020905b81548152906001019060200180831161310b57829003601f168201915b50505050508152602001600582018054600181600116156101000203166002900480601f0160208091040260200160405190810160405280929190818152602001828054600181600116156101000203166002900480156131ca5780601f1061319f576101008083540402835291602001916131ca565b820191906000526020600020905b8154815290600101906020018083116131ad57829003601f168201915b5050505050815250509250600073ffffffffffffffffffffffffffffffffffffffff16836040015173ffffffffffffffffffffffffffffffffffffffff161415151561321557600080fd5b61323683600001518460200151856040015186606001518760800151615385565b151561324f57613245856124a8565b5060009350613254565b600193505b505050919050565b60166020528060005260406000206000915090508060000160009054906101000a900473ffffffffffffffffffffffffffffffffffffffff1690806001015490806002018054600181600116156101000203166002900480601f0160208091040260200160405190810160405280929190818152602001828054600181600116156101000203166002900480156133345780601f1061330957610100808354040283529160200191613334565b820191906000526020600020905b81548152906001019060200180831161331757829003601f168201915b5050505050908060030154905084565b60008173ffffffffffffffffffffffffffffffffffffffff166001029050919050565b60176020528160005260406000208181548110151561338257fe5b906000526020600020016000915091509054906101000a900473ffffffffffffffffffffffffffffffffffffffff1681565b600181565b60006133c3614b53565b15156133ce57600080fd5b601360009054906101000a900460ff161515156133ea57600080fd5b6133fe85601061555590919063ffffffff16565b151561340957600080fd5b61342385858585601061561790949392919063ffffffff16565b5060019050949350505050565b6000601360009054906101000a900460ff1615151561344e57600080fd5b6134593384846156ee565b905092915050565b600281565b600060106000016000856000191660001916815260200190815260200160002060030160008473ffffffffffffffffffffffffffffffffffffffff1673ffffffffffffffffffffffffffffffffffffffff1681526020019081526020016000206000837bffffffffffffffffffffffffffffffffffffffffffffffffffffffff19167bffffffffffffffffffffffffffffffffffffffffffffffffffffffff1916815260200190815260200160002060009054906101000a900460ff1690509392505050565b60006353d413c57c01000000000000000000000000000000000000000000000000000000000263747442d37c01000000000000000000000000000000000000000000000000000000000263b61d27f67c010000000000000000000000000000000000000000000000000000000002631d3812407c010000000000000000000000000000000000000000000000000000000002639010f7267c01000000000000000000000000000000000000000000000000000000000263d202158d7c0100000000000000000000000000000000000000000000000000000000026312aaac707c010000000000000000000000000000000000000000000000000000000002181818181818905090565b600181565b613642614b53565b151561364d57600080fd5b601360009054906101000a900460ff1615151561366957600080fd5b6001601360006101000a81548160ff0219169083151502179055507f4b314b34e912fda7f95e7d23e9c8c95f82f0aff1984e4ce592a0b005f905562460405160405180910390a1565b60606010600101600083815260200190815260200160002080548060200260200160405190810160405280929190818152602001828054801561371857602002820191906000526020600020905b81546000191681526020019060010190808311613700575b50505050509050919050565b600481565b600281565b600e5481565b600481565b60155481565b600881565b600080600080601360009054906101000a900460ff1615151561376657600080fd5b6137738a8a8a8a8a615385565b151561377e57600080fd5b613786614b53565b9250821515613a2e573073ffffffffffffffffffffffffffffffffffffffff1663b61d27f630600080366040518563ffffffff167c0100000000000000000000000000000000000000000000000000000000028152600401808573ffffffffffffffffffffffffffffffffffffffff1673ffffffffffffffffffffffffffffffffffffffff168152602001848152602001806020018281038252848482818152602001925080828437820191505095505050505050602060405180830381600087803b15801561385557600080fd5b505af1158015613869573d6000803e3d6000fd5b505050506040513d602081101561387f57600080fd5b810190808051906020019092919050505093508773ffffffffffffffffffffffffffffffffffffffff168a857fe6b6db97dedfb44cbced367387e40b3f92dbee1b1be87f9367f7b673532b0d698c8b8b8b60405180858152602001806020018060200180602001848103845287818151815260200191508051906020019080838360005b8381101561391e578082015181840152602081019050613903565b50505050905090810190601f16801561394b5780820380516001836020036101000a031916815260200191505b50848103835286818151815260200191508051906020019080838360005b83811015613984578082015181840152602081019050613969565b50505050905090810190601f1680156139b15780820380516001836020036101000a031916815260200191505b50848103825285818151815260200191508051906020019080838360005b838110156139ea5780820151818401526020810190506139cf565b50505050905090810190601f168015613a175780820380516001836020036101000a031916815260200191505b5097505050505050505060405180910390a4613ccf565b613a38888b611c6e565b9150600073ffffffffffffffffffffffffffffffffffffffff1660186000846000191660001916815260200190815260200160002060020160009054906101000a900473ffffffffffffffffffffffffffffffffffffffff1673ffffffffffffffffffffffffffffffffffffffff161415613ac157613abc828b8b8b8b8b8b615c73565b613cce565b601860008360001916600019168152602001908152602001600020905088816001018190555086816003019080519060200190613aff9291906167e3565b5085816004019080519060200190613b189291906167e3565b5084816005019080519060200190613b31929190616863565b508773ffffffffffffffffffffffffffffffffffffffff168a83600019167f3bab293fc00db832d7619a9299914251b8747c036867ec056cbd506f60135b138c8b8b8b60405180858152602001806020018060200180602001848103845287818151815260200191508051906020019080838360005b83811015613bc2578082015181840152602081019050613ba7565b50505050905090810190601f168015613bef5780820380516001836020036101000a031916815260200191505b50848103835286818151815260200191508051906020019080838360005b83811015613c28578082015181840152602081019050613c0d565b50505050905090810190601f168015613c555780820380516001836020036101000a031916815260200191505b50848103825285818151815260200191508051906020019080838360005b83811015613c8e578082015181840152602081019050613c73565b50505050905090810190601f168015613cbb5780820380516001836020036101000a031916815260200191505b5097505050505050505060405180910390a45b5b5050509695505050505050565b600581565b6000601360009054906101000a900460ff16151515613cff57600080fd5b613d0b33858585614ddd565b90509392505050565b600781565b6000634eee424a7c01000000000000000000000000000000000000000000000000000000000263b1a34e0d7c01000000000000000000000000000000000000000000000000000000000263262b54f57c01000000000000000000000000000000000000000000000000000000000263c9100bcb7c010000000000000000000000000000000000000000000000000000000002181818905090565b60008060008090505b6004811015613e9f576008810260ff7f0100000000000000000000000000000000000000000000000000000000000000028583815181101515613dfb57fe5b9060200101517f010000000000000000000000000000000000000000000000000000000000000090047f010000000000000000000000000000000000000000000000000000000000000002167effffffffffffffffffffffffffffffffffffffffffffffffffffffffffffff19167bffffffffffffffffffffffffffffffffffffffffffffffffffffffff19169060020a9004821791508080600101915050613dbc565b8192505050919050565b600381565b60008060006060806060613ec06166da565b60186000896000191660001916815260200190815260200160002060c0604051908101604052908160008201548152602001600182015481526020016002820160009054906101000a900473ffffffffffffffffffffffffffffffffffffffff1673ffffffffffffffffffffffffffffffffffffffff1673ffffffffffffffffffffffffffffffffffffffff168152602001600382018054600181600116156101000203166002900480601f016020809104026020016040519081016040528092919081815260200182805460018160011615610100020316600290048015613fea5780601f10613fbf57610100808354040283529160200191613fea565b820191906000526020600020905b815481529060010190602001808311613fcd57829003601f168201915b50505050508152602001600482018054600181600116156101000203166002900480601f01602080910402602001604051908101604052809291908181526020018280546001816001161561010002031660029004801561408c5780601f106140615761010080835404028352916020019161408c565b820191906000526020600020905b81548152906001019060200180831161406f57829003601f168201915b50505050508152602001600582018054600181600116156101000203166002900480601f01602080910402602001604051908101604052809291908181526020018280546001816001161561010002031660029004801561412e5780601f106141035761010080835404028352916020019161412e565b820191906000526020600020905b81548152906001019060200180831161411157829003601f168201915b5050505050815250509050600073ffffffffffffffffffffffffffffffffffffffff16816040015173ffffffffffffffffffffffffffffffffffffffff161415151561417957600080fd5b80600001519650806020015195508060400151945080606001519350806080015192508060a0015191505091939550919395565b6000601060020154905090565b6000601360009054906101000a900460ff161515156141d857600080fd5b6141e0614b53565b15156141eb57600080fd5b6000821115156141fa57600080fd5b61420460016136b2565b51905080821115151561421657600080fd5b81600e819055505050565b6000601554905090565b600061424383836010614bc89092919063ffffffff16565b905092915050565b600581565b600080600080601360009054906101000a900460ff1615151561427257600080fd5b61427f8b8b8b8b8b615385565b151561428a57600080fd5b61445f8b8b8b8b8b8b604051602001808781526020018681526020018573ffffffffffffffffffffffffffffffffffffffff1673ffffffffffffffffffffffffffffffffffffffff166c0100000000000000000000000002815260140184805190602001908083835b60208310151561431857805182526020820191506020810190506020830392506142f3565b6001836020036101000a03801982511681845116808217855250505050505090500183805190602001908083835b60208310151561436b5780518252602082019150602081019050602083039250614346565b6001836020036101000a03801982511681845116808217855250505050505090500182805190602001908083835b6020831015156143be5780518252602082019150602081019050602083039250614399565b6001836020036101000a03801982511681845116808217855250505050505090500196505050505050506040516020818303038152906040526040518082805190602001908083835b60208310151561442c5780518252602082019150602081019050602083039250614407565b6001836020036101000a03801982511681845116808217855250505050505090500191505060405180910390208661211b565b925061448061446d84613344565b60016010614bc89092919063ffffffff16565b151561448b57600080fd5b614495898c611c6e565b9150600073ffffffffffffffffffffffffffffffffffffffff1660186000846000191660001916815260200190815260200160002060020160009054906101000a900473ffffffffffffffffffffffffffffffffffffffff1673ffffffffffffffffffffffffffffffffffffffff16141561451e57614519828c8c8c8c8c8c615c73565b61472b565b60186000836000191660001916815260200190815260200160002090508981600101819055508781600301908051906020019061455c9291906167e3565b50868160040190805190602001906145759291906167e3565b508581600501908051906020019061458e929190616863565b508873ffffffffffffffffffffffffffffffffffffffff168b83600019167f3bab293fc00db832d7619a9299914251b8747c036867ec056cbd506f60135b138d8c8c8c60405180858152602001806020018060200180602001848103845287818151815260200191508051906020019080838360005b8381101561461f578082015181840152602081019050614604565b50505050905090810190601f16801561464c5780820380516001836020036101000a031916815260200191505b50848103835286818151815260200191508051906020019080838360005b8381101561468557808201518184015260208101905061466a565b50505050905090810190601f1680156146b25780820380516001836020036101000a031916815260200191505b50848103825285818151815260200191508051906020019080838360005b838110156146eb5780820151818401526020810190506146d0565b50505050905090810190601f1680156147185780820380516001836020036101000a031916815260200191505b5097505050505050505060405180910390a45b60019350505050979650505050505050565b600080601360009054906101000a900460ff1615151561475c57600080fd5b601554841415156147d5576040517f08c379a000000000000000000000000000000000000000000000000000000000815260040180806020018281038252600e8152602001807f6e6f6e6365206d69736d6174636800000000000000000000000000000000000081525060200191505060405180910390fd5b6148968686866040516020018084815260200183151515157f010000000000000000000000000000000000000000000000000000000000000002815260010182815260200193505050506040516020818303038152906040526040518082805190602001908083835b602083101515614863578051825260208201915060208101905060208303925061483e565b6001836020036101000a03801982511681845116808217855250505050505090500191505060405180910390208461211b565b90506148a38187876156ee565b915050949350505050565b6000601360009054906101000a900460ff161515156148cc57600080fd5b6148d4614b53565b15156148df57600080fd5b6000821115156148ee57600080fd5b6148f860026136b2565b51905080821115151561490a57600080fd5b81600f819055505050565b600681565b600281565b614927614b53565b151561493257600080fd5b600073ffffffffffffffffffffffffffffffffffffffff168173ffffffffffffffffffffffffffffffffffffffff161415151561496e57600080fd5b8073ffffffffffffffffffffffffffffffffffffffff16ff5b60008585858585604051602001808673ffffffffffffffffffffffffffffffffffffffff1673ffffffffffffffffffffffffffffffffffffffff166c010000000000000000000000000281526014018573ffffffffffffffffffffffffffffffffffffffff1673ffffffffffffffffffffffffffffffffffffffff166c0100000000000000000000000002815260140184815260200183805190602001908083835b602083101515614a4e5780518252602082019150602081019050602083039250614a29565b6001836020036101000a038019825116818451168082178552505050505050905001828152602001955050505050506040516020818303038152906040526040518082805190602001908083835b602083101515614ac15780518252602082019150602081019050602083039250614a9c565b6001836020036101000a038019825116818451168082178552505050505050905001915050604051809103902060019004905095945050505050565b601a5481565b614b1b8383836010615f7a909392919063ffffffff16565b808284600019167f480000bb1edad8ca1470381cc334b1917fbd51c6531f3a623ea8e0ec7e38a6e960405160405180910390a4505050565b60003073ffffffffffffffffffffffffffffffffffffffff163373ffffffffffffffffffffffffffffffffffffffff161415614b925760019050614bc5565b6001600e54141515614ba357600080fd5b614bc2614baf33613344565b60016010614bc89092919063ffffffff16565b90505b90565b6000614bd26166b5565b600085600001600086600019166000191681526020019081526020016000206060604051908101604052908160008201805480602002602001604051908101604052809291908181526020018280548015614c4c57602002820191906000526020600020905b815481526020019060010190808311614c38575b50505050508152602001600182015481526020016002820154600019166000191681525050915060006001028260400151600019161415614c905760009250614cdc565b600090505b816000015151811015614cdb5783826000015182815181101515614cb557fe5b906020019060200201511415614cce5760019250614cdc565b8080600101915050614c95565b5b50509392505050565b60008060008060418551141515614cff5760009350614dd4565b6020850151925060408501519150606085015160001a9050601b8160ff161015614d2a57601b810190505b601b8160ff1614158015614d425750601c8160ff1614155b15614d505760009350614dd4565b600186828585604051600081526020016040526040518085600019166000191681526020018460ff1660ff1681526020018360001916600019168152602001826000191660001916815260200194505050505060206040516020810390808403906000865af1158015614dc7573d6000803e3d6000fd5b5050506020604051035193505b50505092915050565b600080614de86168e3565b614df3878786616054565b9150614e0430878787601554614987565b9250848673ffffffffffffffffffffffffffffffffffffffff16847f8afcfabcb00e47a53a8fc3e9f23ff47ee1926194bb1350dd007c50b412a6cee8876040518080602001828103825283818151815260200191508051906020019080838360005b83811015614e81578082015181840152602081019050614e66565b50505050905090810190601f168015614eae5780820380516001836020036101000a031916815260200191505b509250505060405180910390a46015600081548092919060010191905055506080604051908101604052808773ffffffffffffffffffffffffffffffffffffffff1681526020018681526020018581526020018381525090506000821415614f2257614f1c83826000616376565b50615029565b806016600085815260200190815260200160002060008201518160000160006101000a81548173ffffffffffffffffffffffffffffffffffffffff021916908373ffffffffffffffffffffffffffffffffffffffff160217905550602082015181600101556040820151816002019080519060200190614fa3929190616922565b5060608201518160030155905050601760008481526020019081526020016000208790806001815401808255809150509060018203906000526020600020016000909192909190916101000a81548173ffffffffffffffffffffffffffffffffffffffff021916908373ffffffffffffffffffffffffffffffffffffffff160217905550505b8292505050949350505050565b6000806000615068856301ffc9a77c010000000000000000000000000000000000000000000000000000000002616664565b8092508193505050600082148061507f5750600081145b1561508d5760009250615115565b6150ba8563ffffffff7c010000000000000000000000000000000000000000000000000000000002616664565b809250819350505060008214806150d2575060008114155b156150e05760009250615115565b6150ea8585616664565b80925081935050506001821480156151025750600181145b156151105760019250615115565b600092505b505092915050565b600082600101600083815260200190815260200160002080549050905092915050565b600080600080866000016000876000191660001916815260200190815260200160002060010154935086600001600087600019166000191681526020019081526020016000206000019250600091505b8280549050821015615257578483838154811015156151ab57fe5b9060005260206000200154141561524a578260018480549050038154811015156151d157fe5b906000526020600020015483838154811015156151ea57fe5b906000526020600020018190555082600184805490500381548110151561520d57fe5b90600052602060002001600090558280548091906001900361522f91906169a2565b50866002016000815480929190600190039190505550615257565b8180600101925050615190565b6000838054905014156152a55786600001600087600019166000191681526020019081526020016000206000808201600061529291906169ce565b6001820160009055600282016000905550505b8660010160008681526020019081526020016000209050600091505b808054905082101561537b57856000191681838154811015156152e057fe5b906000526020600020015460001916141561536e5780600182805490500381548110151561530a57fe5b9060005260206000200154818381548110151561532357fe5b90600052602060002001816000191690555080600182805490500381548110151561534a57fe5b90600052602060002001600090558080548091906001900361536c91906167b7565b505b81806001019250506152c1565b5050509392505050565b6000806001861415615546576153a561539f308986611e8a565b8561211b565b90508073ffffffffffffffffffffffffffffffffffffffff168573ffffffffffffffffffffffffffffffffffffffff1614156153e4576001915061554b565b3073ffffffffffffffffffffffffffffffffffffffff168573ffffffffffffffffffffffffffffffffffffffff16141561543e5761543761542482613344565b60036010614bc89092919063ffffffff16565b915061554b565b61546e61544961352c565b8673ffffffffffffffffffffffffffffffffffffffff1661503690919063ffffffff16565b1561553d578473ffffffffffffffffffffffffffffffffffffffff1663d202158d61549883613344565b60036040518363ffffffff167c010000000000000000000000000000000000000000000000000000000002815260040180836000191660001916815260200182815260200192505050602060405180830381600087803b1580156154fb57600080fd5b505af115801561550f573d6000803e3d6000fd5b505050506040513d602081101561552557600080fd5b8101908080519060200190929190505050915061554b565b6000915061554b565b600091505b5095945050505050565b600061555f6166b5565b836000016000846000191660001916815260200190815260200160002060606040519081016040529081600082018054806020026020016040519081016040528092919081815260200182805480156155d757602002820191906000526020600020905b8154815260200190600101908083116155c3575b5050505050815260200160018201548152602001600282015460001916600019168152505090506000600102816040015160001916141591505092915050565b60008086600001600087600019166000191681526020019081526020016000209050828160030160008773ffffffffffffffffffffffffffffffffffffffff1673ffffffffffffffffffffffffffffffffffffffff1681526020019081526020016000206000867bffffffffffffffffffffffffffffffffffffffffffffffffffffffff19167bffffffffffffffffffffffffffffffffffffffffffffffffffffffff1916815260200190815260200160002060006101000a81548160ff0219169083151502179055508291505095945050505050565b6000806000806000861415151561570457600080fd5b60166000878152602001908152602001600020925060008360000160009054906101000a900473ffffffffffffffffffffffffffffffffffffffff1673ffffffffffffffffffffffffffffffffffffffff161415151561576357600080fd5b61582e878460000160009054906101000a900473ffffffffffffffffffffffffffffffffffffffff16856002018054600181600116156101000203166002900480601f0160208091040260200160405190810160405280929190818152602001828054600181600116156101000203166002900480156158245780601f106157f957610100808354040283529160200191615824565b820191906000526020600020905b81548152906001019060200180831161580757829003601f168201915b5050505050616054565b50857fb3932da477fe5d6c8ff2eafef050c0f3a1af18fc07121001482600f36f3715d886604051808215151515815260200191505060405180910390a2601760008781526020019081526020016000209150841515615a2357600090505b8180549050811015615a1a578673ffffffffffffffffffffffffffffffffffffffff1682828154811015156158bd57fe5b9060005260206000200160009054906101000a900473ffffffffffffffffffffffffffffffffffffffff1673ffffffffffffffffffffffffffffffffffffffff161415615a0d5781600183805490500381548110151561591957fe5b9060005260206000200160009054906101000a900473ffffffffffffffffffffffffffffffffffffffff16828281548110151561595257fe5b9060005260206000200160006101000a81548173ffffffffffffffffffffffffffffffffffffffff021916908373ffffffffffffffffffffffffffffffffffffffff1602179055508160018380549050038154811015156159af57fe5b9060005260206000200160006101000a81549073ffffffffffffffffffffffffffffffffffffffff0219169055818054809190600190036159f091906169ef565b506001836003016000828254019250508190555060019350615c69565b808060010191505061588c565b60009350615c69565b600090505b8180549050811015615ab4578673ffffffffffffffffffffffffffffffffffffffff168282815481101515615a5957fe5b9060005260206000200160009054906101000a900473ffffffffffffffffffffffffffffffffffffffff1673ffffffffffffffffffffffffffffffffffffffff1614151515615aa757600080fd5b8080600101915050615a28565b818790806001815401808255809150509060018203906000526020600020016000909192909190916101000a81548173ffffffffffffffffffffffffffffffffffffffff021916908373ffffffffffffffffffffffffffffffffffffffff1602179055505060018360030160008282540392505081905550600083600301541415615c6457615c5d8684608060405190810160405290816000820160009054906101000a900473ffffffffffffffffffffffffffffffffffffffff1673ffffffffffffffffffffffffffffffffffffffff1673ffffffffffffffffffffffffffffffffffffffff16815260200160018201548152602001600282018054600181600116156101000203166002900480601f016020809104026020016040519081016040528092919081815260200182805460018160011615610100020316600290048015615c435780601f10615c1857610100808354040283529160200191615c43565b820191906000526020600020905b815481529060010190602001808311615c2657829003601f168201915b505050505081526020016003820154815250506001616376565b9350615c69565b600193505b5050509392505050565b60c0604051908101604052808781526020018681526020018573ffffffffffffffffffffffffffffffffffffffff16815260200184815260200183815260200182815250601860008960001916600019168152602001908152602001600020600082015181600001556020820151816001015560408201518160020160006101000a81548173ffffffffffffffffffffffffffffffffffffffff021916908373ffffffffffffffffffffffffffffffffffffffff1602179055506060820151816003019080519060200190615d49929190616922565b506080820151816004019080519060200190615d66929190616922565b5060a0820151816005019080519060200190615d83929190616a1b565b50905050601960008781526020019081526020016000208790806001815401808255809150509060018203906000526020600020016000909192909190915090600019169055506001601a5401601a819055508373ffffffffffffffffffffffffffffffffffffffff168688600019167f46149b18aa084502c3f12bc75e19eda8bda8d102b82cce8474677a6d0d5f43c58887878760405180858152602001806020018060200180602001848103845287818151815260200191508051906020019080838360005b83811015615e66578082015181840152602081019050615e4b565b50505050905090810190601f168015615e935780820380516001836020036101000a031916815260200191505b50848103835286818151815260200191508051906020019080838360005b83811015615ecc578082015181840152602081019050615eb1565b50505050905090810190601f168015615ef95780820380516001836020036101000a031916815260200191505b50848103825285818151815260200191508051906020019080838360005b83811015615f32578082015181840152602081019050615f17565b50505050905090810190601f168015615f5f5780820380516001836020036101000a031916815260200191505b5097505050505050505060405180910390a450505050505050565b6000846000016000856000191660001916815260200190815260200160002090508060000183908060018154018082558091505090600182039060005260206000200160009091929091909150555060006001028160020154600019161415615ff457838160020181600019169055508181600101819055505b84600101600084815260200190815260200160002084908060018154018082558091505090600182039060005260206000200160009091929091909150906000191690555084600201600081548092919060010191905055505050505050565b60003073ffffffffffffffffffffffffffffffffffffffff168373ffffffffffffffffffffffffffffffffffffffff16141561619e573073ffffffffffffffffffffffffffffffffffffffff168473ffffffffffffffffffffffffffffffffffffffff1614156160c857600e549050616199565b6160e76160d485613344565b60016010614bc89092919063ffffffff16565b80616181575061610c6160f985613344565b60076010614bc89092919063ffffffff16565b80156161805750631d3812407c0100000000000000000000000000000000000000000000000000000000027bffffffffffffffffffffffffffffffffffffffffffffffffffffffff191661615f83613db3565b7bffffffffffffffffffffffffffffffffffffffffffffffffffffffff1916145b5b15616193576001600e54039050616198565b600080fd5b5b61636f565b600073ffffffffffffffffffffffffffffffffffffffff168373ffffffffffffffffffffffffffffffffffffffff16141515156161da57600080fd5b3073ffffffffffffffffffffffffffffffffffffffff168473ffffffffffffffffffffffffffffffffffffffff16141561621857600f54905061636e565b61623761622485613344565b60026010614bc89092919063ffffffff16565b8061625d575061625c61624985613344565b60066010614bc89092919063ffffffff16565b5b80616356575061628261626f85613344565b60086010614bc89092919063ffffffff16565b801561635557506010600001600061629986613344565b6000191660001916815260200190815260200160002060030160008473ffffffffffffffffffffffffffffffffffffffff1673ffffffffffffffffffffffffffffffffffffffff16815260200190815260200160002060006162fa84613db3565b7bffffffffffffffffffffffffffffffffffffffffffffffffffffffff19167bffffffffffffffffffffffffffffffffffffffffffffffffffffffff1916815260200190815260200160002060009054906101000a900460ff165b5b15616368576001600f5403905061636d565b600080fd5b5b5b9392505050565b6000806000846000015173ffffffffffffffffffffffffffffffffffffffff16141515156163a357600080fd5b836000015173ffffffffffffffffffffffffffffffffffffffff168460200151856040015160405180828051906020019080838360005b838110156163f55780820151818401526020810190506163da565b50505050905090810190601f1680156164225780820380516001836020036101000a031916815260200191505b5091505060006040518083038185875af192505050905080151561650a578360200151846000015173ffffffffffffffffffffffffffffffffffffffff16867fe10c49d9f7c71da23262367013434763cfdb2332267641728d25cd712c5c6a6887604001516040518080602001828103825283818151815260200191508051906020019080838360005b838110156164c75780820151818401526020810190506164ac565b50505050905090810190601f1680156164f45780820380516001836020036101000a031916815260200191505b509250505060405180910390a46000915061665c565b8360200151846000015173ffffffffffffffffffffffffffffffffffffffff16867f1f920dbda597d7bf95035464170fa58d0a4b57f13a1c315ace6793b9f63688b887604001516040518080602001828103825283818151815260200191508051906020019080838360005b83811015616591578082015181840152602081019050616576565b50505050905090810190601f1680156165be5780820380516001836020036101000a031916815260200191505b509250505060405180910390a48215156165db576001915061665c565b60166000868152602001908152602001600020600080820160006101000a81549073ffffffffffffffffffffffffffffffffffffffff0219169055600182016000905560028201600061662e9190616727565b600382016000905550506017600086815260200190815260200160002060006166579190616a9b565b600191505b509392505050565b60008060006301ffc9a77c010000000000000000000000000000000000000000000000000000000002905060405181815284600482015260208160208389617530fa93508051925050509250929050565b6060604051908101604052806060815260200160008152602001600080191681525090565b60c0604051908101604052806000815260200160008152602001600073ffffffffffffffffffffffffffffffffffffffff1681526020016060815260200160608152602001606081525090565b50805460018160011615610100020316600290046000825580601f1061674d575061676c565b601f01602090049060005260206000209081019061676b9190616abc565b5b50565b50805460018160011615610100020316600290046000825580601f1061679557506167b4565b601f0160209004906000526020600020908101906167b39190616abc565b5b50565b8154818355818111156167de578183600052602060002091820191016167dd9190616ae1565b5b505050565b828054600181600116156101000203166002900490600052602060002090601f016020900481019282601f1061682457805160ff1916838001178555616852565b82800160010185558215616852579182015b82811115616851578251825591602001919060010190616836565b5b50905061685f9190616abc565b5090565b828054600181600116156101000203166002900490600052602060002090601f016020900481019282601f106168a457805160ff19168380011785556168d2565b828001600101855582156168d2579182015b828111156168d15782518255916020019190600101906168b6565b5b5090506168df9190616abc565b5090565b608060405190810160405280600073ffffffffffffffffffffffffffffffffffffffff1681526020016000815260200160608152602001600081525090565b828054600181600116156101000203166002900490600052602060002090601f016020900481019282601f1061696357805160ff1916838001178555616991565b82800160010185558215616991579182015b82811115616990578251825591602001919060010190616975565b5b50905061699e9190616abc565b5090565b8154818355818111156169c9578183600052602060002091820191016169c89190616abc565b5b505050565b50805460008255906000526020600020908101906169ec9190616abc565b50565b815481835581811115616a1657818360005260206000209182019101616a159190616abc565b5b505050565b828054600181600116156101000203166002900490600052602060002090601f016020900481019282601f10616a5c57805160ff1916838001178555616a8a565b82800160010185558215616a8a579182015b82811115616a89578251825591602001919060010190616a6e565b5b509050616a979190616abc565b5090565b5080546000825590600052602060002090810190616ab99190616abc565b50565b616ade91905b80821115616ada576000816000905550600101616ac2565b5090565b90565b616b0391905b80821115616aff576000816000905550600101616ae7565b5090565b905600a165627a7a7230582072b1c4b850f87d0d2873a57680ee880650790dc3e399cf130f993c40e330a3a50029",
  "source": "pragma solidity ^0.4.24;\n\nimport \"../abstract/AMetaIdentityProxy.sol\";\nimport \"./Slice.sol\";\nimport \"./Destructible.sol\";\nimport \"./KeyManager.sol\";\nimport \"./KeyGetters.sol\";\nimport \"./MultiSig.sol\";\nimport \"./ClaimManager.sol\";\n\n\n/// @title MetaIdentity\n/// @author Metadium, genie\n/// @notice Identity contract implementing ERC 725, ERC 735 and Metadium features.\ncontract MetaIdentityLib is AMetaIdentityProxy, MultiSig, ClaimManager, Destructible, KeyManager, KeyGetters {\n    using Slice for bytes;\n    using Slice for string;\n\n    function init(address _managementKey) public {\n        bytes32 senderKey = addrToKey(_managementKey);\n        \n        require(getKeysByPurpose(MANAGEMENT_KEY).length == 0, \"Already initiated\");\n\n        // Add key that deployed the contract for MANAGEMENT, ACTION, CLAIM\n        _addKey(senderKey, MANAGEMENT_KEY, ECDSA_TYPE);\n        _addKey(senderKey, ACTION_KEY, ECDSA_TYPE);\n        _addKey(senderKey, CLAIM_SIGNER_KEY, ECDSA_TYPE);\n        \n        managementThreshold = 1;\n        actionThreshold = 1;\n\n        // Supports both ERC 725 & 735\n        supportedInterfaces[ERC725ID() ^ ERC735ID()] = true;\n    }\n}",
  "sourcePath": "/Users/hexoul/Documents/Metadium/metabolics/contracts/identity/MetaIdentityLib.sol",
  "compiler": {
    "name": "solc",
    "version": "0.4.24+commit.e67f0147.Emscripten.clang"
  },
  "schemaVersion": "2.0.1",
  "updatedAt": "2019-03-19T07:21:36.522Z"
}