{
  "contractName": "Pausable",
  "abi": [
    {
      "constant": true,
      "inputs": [],
      "name": "MANAGEMENT_KEY",
      "outputs": [
        {
          "name": "",
          "type": "uint256"
        }
      ],
      "payable": false,
      "stateMutability": "view",
      "type": "function"
    },
    {
      "constant": true,
      "inputs": [],
      "name": "actionThreshold",
      "outputs": [
        {
          "name": "",
          "type": "uint256"
        }
      ],
      "payable": false,
      "stateMutability": "view",
      "type": "function"
    },
    {
      "constant": true,
      "inputs": [],
      "name": "paused",
      "outputs": [
        {
          "name": "",
          "type": "bool"
        }
      ],
      "payable": false,
      "stateMutability": "view",
      "type": "function"
    },
    {
      "constant": true,
      "inputs": [
        {
          "name": "addr",
          "type": "address"
        }
      ],
      "name": "addrToKey",
      "outputs": [
        {
          "name": "",
          "type": "bytes32"
        }
      ],
      "payable": false,
      "stateMutability": "pure",
      "type": "function"
    },
    {
      "constant": true,
      "inputs": [],
      "name": "managementThreshold",
      "outputs": [
        {
          "name": "",
          "type": "uint256"
        }
      ],
      "payable": false,
      "stateMutability": "view",
      "type": "function"
    },
    {
      "constant": true,
      "inputs": [],
      "name": "numKeys",
      "outputs": [
        {
          "name": "",
          "type": "uint256"
        }
      ],
      "payable": false,
      "stateMutability": "view",
      "type": "function"
    },
    {
      "anonymous": false,
      "inputs": [],
      "name": "LogPause",
      "type": "event"
    },
    {
      "anonymous": false,
      "inputs": [],
      "name": "LogUnpause",
      "type": "event"
    },
    {
      "constant": false,
      "inputs": [],
      "name": "pause",
      "outputs": [],
      "payable": false,
      "stateMutability": "nonpayable",
      "type": "function"
    },
    {
      "constant": false,
      "inputs": [],
      "name": "unpause",
      "outputs": [],
      "payable": false,
      "stateMutability": "nonpayable",
      "type": "function"
    }
  ],
  "bytecode": "0x60806040526001600055600180556000600560006101000a81548160ff02191690831515021790555034801561003457600080fd5b50610520806100446000396000f30060806040526004361061008e576000357c0100000000000000000000000000000000000000000000000000000000900463ffffffff168063058b316c1461009357806338f4edd4146100be5780633f4ba83a146100e95780635c975abb1461010057806363f14c3c1461012f5780638456cb591461018e578063aa0a5142146101a5578063c9d24ecc146101d0575b600080fd5b34801561009f57600080fd5b506100a86101fb565b6040518082815260200191505060405180910390f35b3480156100ca57600080fd5b506100d3610200565b6040518082815260200191505060405180910390f35b3480156100f557600080fd5b506100fe610206565b005b34801561010c57600080fd5b5061011561027d565b604051808215151515815260200191505060405180910390f35b34801561013b57600080fd5b50610170600480360381019080803573ffffffffffffffffffffffffffffffffffffffff169060200190929190505050610290565b60405180826000191660001916815260200191505060405180910390f35b34801561019a57600080fd5b506101a36102b3565b005b3480156101b157600080fd5b506101ba61032b565b6040518082815260200191505060405180910390f35b3480156101dc57600080fd5b506101e5610331565b6040518082815260200191505060405180910390f35b600181565b60015481565b61020e61033d565b151561021957600080fd5b600560009054906101000a900460ff16151561023457600080fd5b6000600560006101000a81548160ff0219169083151502179055507f730c1faaa977b67dacf1e2451ef54556e04a07d577785ff79f6d31f73502efc960405160405180910390a1565b600560009054906101000a900460ff1681565b60008173ffffffffffffffffffffffffffffffffffffffff166001029050919050565b6102bb61033d565b15156102c657600080fd5b600560009054906101000a900460ff161515156102e257600080fd5b6001600560006101000a81548160ff0219169083151502179055507f4b314b34e912fda7f95e7d23e9c8c95f82f0aff1984e4ce592a0b005f905562460405160405180910390a1565b60005481565b60006002800154905090565b60003073ffffffffffffffffffffffffffffffffffffffff163373ffffffffffffffffffffffffffffffffffffffff16141561037c57600190506103af565b600160005414151561038d57600080fd5b6103ac61039933610290565b600160026103b29092919063ffffffff16565b90505b90565b60006103bc6104cf565b60008560000160008660001916600019168152602001908152602001600020606060405190810160405290816000820180548060200260200160405190810160405280929190818152602001828054801561043657602002820191906000526020600020905b815481526020019060010190808311610422575b5050505050815260200160018201548152602001600282015460001916600019168152505091506000600102826040015160001916141561047a57600092506104c6565b600090505b8160000151518110156104c5578382600001518281518110151561049f57fe5b9060200190602002015114156104b857600192506104c6565b808060010191505061047f565b5b50509392505050565b60606040519081016040528060608152602001600081526020016000801916815250905600a165627a7a72305820103017f8444dc36d33b5523f52d4174e8a5776f2b92b083ba1ded0a04f5138670029",
  "source": "pragma solidity ^0.4.24;\n\nimport \"./KeyBase.sol\";\n\n\n/// @title Pausable\n/// @author genie\n/// @notice Base contract which allows children to implement an emergency stop mechanism\n/// @dev Inspired by https://github.com/OpenZeppelin/zeppelin-solidity/blob/master/contracts/lifecycle/Pausable.sol\ncontract Pausable is KeyBase {\n    event LogPause();\n    event LogUnpause();\n\n    bool public paused = false;\n\n    /// @dev Modifier to make a function callable only when the contract is not paused\n    modifier whenNotPaused() {\n        require(!paused);\n        _;\n    }\n\n    /// @dev Modifier to make a function callable only when the contract is paused\n    modifier whenPaused() {\n        require(paused);\n        _;\n    }\n\n    /// @dev called by a MANAGEMENT_KEY or the identity itself to pause, triggers stopped state\n    function pause()\n        public\n        onlyManagementOrSelf\n        whenNotPaused\n    {\n        paused = true;\n        emit LogPause();\n    }\n\n      /// @dev called by a MANAGEMENT_KEY or the identity itself to unpause, returns to normal state\n    function unpause()\n        public\n        onlyManagementOrSelf\n        whenPaused\n    {\n        paused = false;\n        emit LogUnpause();\n    }\n}\n",
  "sourcePath": "/Users/hexoul/Documents/Metadium/metabolics/contracts/identity/Pausable.sol",
  "compiler": {
    "name": "solc",
    "version": "0.4.24+commit.e67f0147.Emscripten.clang"
  },
  "schemaVersion": "2.0.1",
  "updatedAt": "2019-03-19T07:21:36.527Z"
}