{
  "contractName": "TestContract",
  "abi": [
    {
      "constant": true,
      "inputs": [
        {
          "name": "",
          "type": "address"
        }
      ],
      "name": "numCalls",
      "outputs": [
        {
          "name": "",
          "type": "uint256"
        }
      ],
      "payable": false,
      "stateMutability": "view",
      "type": "function"
    },
    {
      "anonymous": false,
      "inputs": [
        {
          "indexed": false,
          "name": "data",
          "type": "bytes"
        }
      ],
      "name": "IdentityCalled",
      "type": "event"
    },
    {
      "constant": false,
      "inputs": [],
      "name": "callMe",
      "outputs": [],
      "payable": false,
      "stateMutability": "nonpayable",
      "type": "function"
    },
    {
      "constant": false,
      "inputs": [],
      "name": "whoCalling",
      "outputs": [],
      "payable": false,
      "stateMutability": "nonpayable",
      "type": "function"
    }
  ],
  "bytecode": "0x608060405234801561001057600080fd5b506106a2806100206000396000f300608060405260043610610057576000357c0100000000000000000000000000000000000000000000000000000000900463ffffffff1680630d26cf7f1461005c578063840f724914610073578063b0bea725146100ca575b600080fd5b34801561006857600080fd5b506100716100e1565b005b34801561007f57600080fd5b506100b4600480360381019080803573ffffffffffffffffffffffffffffffffffffffff1690602001909291905050506104d7565b6040518082815260200191505060405180910390f35b3480156100d657600080fd5b506100df6104ef565b005b600060608061013263107653797c0100000000000000000000000000000000000000000000000000000000023373ffffffffffffffffffffffffffffffffffffffff1661053e90919063ffffffff16565b151561013d57600080fd5b3392508273ffffffffffffffffffffffffffffffffffffffff1663262b54f560056040518263ffffffff167c010000000000000000000000000000000000000000000000000000000002815260040180828152602001915050600060405180830381600087803b1580156101b057600080fd5b505af11580156101c4573d6000803e3d6000fd5b505050506040513d6000823e3d601f19601f8201168201806040525060208110156101ee57600080fd5b81019080805164010000000081111561020657600080fd5b8281019050602081018481111561021c57600080fd5b815185602082028301116401000000008211171561023957600080fd5b505092919050505091508273ffffffffffffffffffffffffffffffffffffffff1663c9100bcb83600081518110151561026e57fe5b906020019060200201516040518263ffffffff167c0100000000000000000000000000000000000000000000000000000000028152600401808260001916600019168152602001915050600060405180830381600087803b1580156102d257600080fd5b505af11580156102e6573d6000803e3d6000fd5b505050506040513d6000823e3d601f19601f8201168201806040525060c081101561031057600080fd5b81019080805190602001909291908051906020019092919080519060200190929190805164010000000081111561034657600080fd5b8281019050602081018481111561035c57600080fd5b815185600182028301116401000000008211171561037957600080fd5b5050929190602001805164010000000081111561039557600080fd5b828101905060208101848111156103ab57600080fd5b81518560018202830111640100000000821117156103c857600080fd5b505092919060200180516401000000008111156103e457600080fd5b828101905060208101848111156103fa57600080fd5b815185600182028301116401000000008211171561041757600080fd5b505092919050505090919293945090919293509091925090915050809150507f65b0c4fca8f1adcd4aaaa7c9fdd595a10b6881f37bd412bc84f8ebb43ea92fc4816040518080602001828103825283818151815260200191508051906020019080838360005b8381101561049857808201518184015260208101905061047d565b50505050905090810190601f1680156104c55780820380516001836020036101000a031916815260200191505b509250505060405180910390a1505050565b60006020528060005260406000206000915090505481565b60016000803373ffffffffffffffffffffffffffffffffffffffff1673ffffffffffffffffffffffffffffffffffffffff16815260200190815260200160002060008282540192505081905550565b6000806000610570856301ffc9a77c010000000000000000000000000000000000000000000000000000000002610625565b809250819350505060008214806105875750600081145b15610595576000925061061d565b6105c28563ffffffff7c010000000000000000000000000000000000000000000000000000000002610625565b809250819350505060008214806105da575060008114155b156105e8576000925061061d565b6105f28585610625565b809250819350505060018214801561060a5750600181145b15610618576001925061061d565b600092505b505092915050565b60008060006301ffc9a77c010000000000000000000000000000000000000000000000000000000002905060405181815284600482015260208160208389617530fa935080519250505092509290505600a165627a7a723058209bcd46e4675780a69ed728e0c54940d79c88fb8785aed8fb5c90e050bf09cdad0029",
  "source": "pragma solidity ^0.4.24;\n\nimport \"./ERC165Query.sol\";\nimport \"./ERC735.sol\";\n\n\n/// @title TestContract\n/// @author Mircea Pasoi\n/// @dev Contract used in unit tests\ncontract TestContract {\n    // Implements ERC165\n    using ERC165Query for address;\n\n    // Events\n    event IdentityCalled(bytes data);\n\n    // Counts calls by msg.sender\n    mapping (address => uint) public numCalls;\n\n    /// @dev Increments the number of calls from sender\n    function callMe() external {\n        numCalls[msg.sender] += 1;\n    }\n\n    /// @dev Expects to be called by an ERC735 contract and it will emit the label\n    ///  of the first LABEL claim in that contract\n    function whoCalling() external {\n        // ERC735\n        require(msg.sender.doesContractImplementInterface(0x10765379));\n        // Get first LABEL claim\n        ERC735 id = ERC735(msg.sender);\n        // 5 is LABEL_TOPIC\n        bytes32[] memory claimIds = id.getClaimIdsByType(5);\n        bytes memory data;\n        (, , , , data, ) = id.getClaim(claimIds[0]);\n        emit IdentityCalled(data);\n    }\n}\n",
  "sourcePath": "/Users/hexoul/Documents/Metadium/metabolics/contracts/identity/TestContract.sol",
  "compiler": {
    "name": "solc",
    "version": "0.4.24+commit.e67f0147.Emscripten.clang"
  },
  "schemaVersion": "2.0.1",
  "updatedAt": "2019-03-19T07:21:36.528Z"
}